:02000002B0004C
:1040000000400B008CE70B00000006000C000502CE
:084010000401E50C00000000B2
:04401800ECC80B00E5
:1040200009480A49884208B505D0094A824202D0A7
:10403000121A08F08FFA0748074A0021121A08F0EE
:10404000B1FA014808BD00BF20E4032098E60B0048
:10405000ECE40320F0E40320F1E7032070B5074E01
:10406000074C03F0F7FEA41BA4080025AC4200D1C6
:1040700070BD56F8043B98470135F7E73CE60B0066
:1040800064E60B0000F0A6BE08B500F0DDFEBDE85A
:10409000084003F097BE02F00BBE02F009BE02F02A
:1040A0000FBE02F00DBE000008B5034A03490C2004
:1040B00002F042FDFEE700BF996A0B0000C90B0049
:1040C0000078B0FA80F04009704701230370704710
:1040D0007047006A0368DB681847000030B597B086
:1040E0000A46334C014610A808F034FA10A9684675
:1040F00007F075F9214608A807F071F908A9684684
:1041000007F050FA0022694603460CA807F078FA37
:104110000CA807F09CFA274B18600CA807F014F9BC
:1041200008A807F011F9214604A807F058F904A9D6
:10413000684607F037FA2146054608A807F04FF908
:1041400008A9684607F056FA6A1C034669460CA897
:1041500007F056FA0CA807F07AFA174D28600CA859
:1041600007F0F2F808A807F0EFF804A807F0ECF859
:104170002B6821465B4208A82B6007F030F908A99C
:10418000684607F037FA6946421C0CA807F058FA4F
:104190000CA807F05CFA094B18600CA807F0D4F8DB
:1041A00008A807F0D1F8684607F0CEF817B030BD80
:1041B00016C90B0070E6032074E6032078E603209E
:1041C0000A4B10B50446036003F0E2FF214604F0F9
:1041D0002CFA03F0BFFC03F0B1FC2046044B40F87E
:1041E000043B04F0BDF8204610BD00BF44CA0B00DC
:1041F0002CCA0B0010B50446FFF7E2FF204624212D
:10420000FFF74FFF204610BD0EB403B503AB0021EE
:1042100053F8042B019304F048FE02B05DF804EB60
:1042200003B07047F8B502F1080323F0070300AFAD
:104230001546ADEB030D0024684608F08BF90DF828
:104240000540354D9DF80020344E23462146284632
:1042500001F0F2FD9DF8012023462846012101F0DE
:10426000EBFD9DF8022023462846022101F0E4FDE3
:104270009DF8032023462846032101F0DDFD9DF82B
:10428000042023462146304601F0D6FD9DF8052046
:1042900023463046012101F0CFFD9DF8062023463C
:1042A0003046022101F0C8FD9DF807202346304624
:1042B000032101F0C1FD9DF808201948234621463D
:1042C00001F0BAFD9DF8092015482346012101F0AF
:1042D000B3FD9DF80A2012482346022101F0ACFDEF
:1042E00023469DF80B200E48032101F0A5FD0C4844
:1042F00001F07DFD304601F07AFD284601F077FDA2
:1043000003F028FC07496A46FFF77EFF03F022FC12
:1043100004F097FDBD46F8BDC0E503203CE6032050
:10432000A8E503209DC90B000EB400B58CB00DAA02
:104330004FF0200C52F8041B0392CDE90012002329
:10434000016804AA1E20CDE904C302F005FC0CB0EC
:104350005DF804EB03B0704700220A238A4203DAB7
:10436000B0FBF3F00132F9E7B0FBF3F203FB12000C
:104370007047000070B500210446FFF7EDFF2F4E97
:104380002F4D30300B46C2B20321304601F054FDB0
:1043900001212046FFF7E0FF3030C2B20023304653
:1043A000022101F049FD02212046FFF7D5FF303000
:1043B000C2B200233046012101F03EFD0321204618
:1043C000FFF7CAFF00233030C2B21946304601F071
:1043D00033FD04212046FFF7BFFF3030C2B2002377
:1043E0002846032101F028FD05212046FFF7B4FFF0
:1043F0003030C2B200232846022101F01DFD062103
:104400002046FFF7A9FF3030C2B200232846012121
:1044100001F012FD07212046FFF79EFF00233030F8
:10442000C2B21946284601F007FD304601F0DFFC14
:104430002846BDE8704001F0DABC00BFA8E50320C3
:104440003CE6032008B507F0AFF90A4903F0DEFAAD
:1044500007F0AAF903F0DEFA0748712101F0A8FC81
:104460000648732101F0A4FCBDE80840044874210B
:1044700001F09EBC801A0600A8E503203CE603205C
:10448000C0E50320194B1B680A2B0CDC5A1C0CDB03
:1044900000010A2B0BD8DFE803F00E1012141618D7
:1044A0001A1C1E202200452B1BD000207047104BE9
:1044B0001844405C70470F4BFAE70F4BF8E70F4B7F
:1044C000F6E70F4BF4E70F4BF2E70F4BF0E70F4B1C
:1044D000EEE70F4BECE70F4BEAE70F4BE8E70F4B2C
:1044E000E6E70F4B03EB0010E3E700BF34E40320E3
:1044F00054D10B0054CF0B0054D00B0054D60B00FA
:1045000054CB0B0054D20B0054D50B0054CD0B00F0
:1045100054CA0B0054D40B0054D30B0054CE0B00E0
:1045200054CC0B002DE9F8431B4B1B68092B30D0F2
:1045300000261A4FDFF86880344600254FF00C093A
:1045400029462046FFF79EFF03281CD109FB06F2EF
:10455000BB18BC5000229A605D6003F0FBFA0A228F
:10456000214604F084FC03F0F5FA414604F062FCB5
:1045700003F0F0FA0A22294604F079FC03F0EAFA83
:1045800004F05FFC01360135102DD9D10134102C17
:10459000D3D1BDE8F88300BF34E403203CE403201A
:1045A00015C90B00084A052301209168012918BF8D
:1045B0000020013B02F10C02F7D1044B1B68092BD0
:1045C00008BF0120704700BF3CE4032034E403200F
:1045D0002DE9F84FF5EE400AF1EE10FA2DED028BC1
:1045E00011EE105AB0EE608A00F0AF80DFED5C7A19
:1045F000B4EE670ADFED5B7AF1EE10FA0CBF17EE4E
:10460000900A10EE100A07F019FC574B002207F031
:1046100097FD0F46064607F003FF824607F0FCFBB6
:1046200002460B463046394607F0A8FA07F020FF4D
:1046300008EE900A284607F001FC064618EE100A1C
:104640000F4607F0FBFB02460B46804689460020DA
:10465000464907F093FA32463B4607F047FC07F01D
:1046600007FF68EE287A044617EE900A07F0E6FB8B
:1046700002460B4600203D4907F080FA32463B4691
:1046800007F034FC07F0F4FE834618EE900A07F0BA
:10469000D5FB02460B460020344907F06FFA42462C
:1046A0004B4607F023FC02460B4600202F4907F03B
:1046B00065FA32463B4607F019FC07F0D9FE06467C
:1046C000BAF1050F3DD8DFE80AF005032B30353984
:1046D0002E465D46284607F0B1FB1FA3D3E9002311
:1046E00007F004FC07F09CFE0704304607F0A6FB29
:1046F00019A3D3E9002307F0F9FB07F091FE47EA7D
:104700000027204607F09AFB13A3D3E9002307F004
:10471000EDFB07F085FEBDEC028B3843BDE8F88F5A
:104720002B461E4625460446D4E72B465E462546C4
:104730001C46CFE72B4626460546F9E726465C464B
:10474000C8E7002426462546C4E711EE104A11EEBC
:10475000106ABFE7AFF300800000000000E06F4088
:104760000000B4430000000000004E400000F03F95
:1047700038B5FFF717FF00283BD0214C214D2368A7
:104780002A689342C8BF9B1A07EE903A07EE102A98
:10479000F8EEE77AB8EEC77AB7EE001A87EE870A26
:1047A000DFED197AF0EE410A20EE270AFFF710FF3D
:1047B000164B0246C0F307401860154BC2F30721A1
:1047C0001960144BD2B21A60134B1B68092B11D01D
:1047D00000F078FE012203460121104800F06CFD34
:1047E00023682A680133520093FBF2F102FB113374
:1047F000236038BD00F066FE0E220346ECE700BFE2
:10480000A4E5032038E403200000B44368E6032055
:10481000BCE5032040E5032034E40320F8E5032051
:104820002DE9F74F514BDFF858A1DFF858B1D3E924
:104830000089DAE900234046494607F0A1F9DBE99F
:10484000006704460D4630463946CAE9004507F080
:10485000E7FD29460190204607F0E2FD019B19463D
:10486000FFF710FE012805D903280BD1404B1B6828
:10487000452B07D142464B462046294607F07EF994
:10488000CAE900013B4BD3E90045304622462B469E
:10489000394607F075F989468046DAE90067CBE9C1
:1048A000008907F0BDFD39460190304607F0B8FD9C
:1048B000019B1946FFF7E6FD012805D903280BD116
:1048C0002B4B1B68452B07D122462B4640464946B9
:1048D00007F054F9CBE900010022002330463946A5
:1048E00007F076FD002834D1234B002230463946AC
:1048F00007F08CFD80BBDBE9004500220023204649
:104900002946CAE9006707F063FD40BB1A4B002245
:104910002046294607F07AFD20BB30463946CBE9D0
:10492000004507F07DFD29460646204607F078FD44
:10493000124B052201211C68B44203D15C688442F9
:1049400008BF9960013A03F10C03F4D103B0BDE84C
:10495000F08F00260027CEE7074F0026CBE7002484
:104960000025DAE7044D0024D7E700BF30E5032037
:1049700034E4032038E5032000002E403CE403200B
:1049800020E4032028E403202DE9F84F1FFA80F8E3
:10499000DFF8E890DFF8E8A00E4644460027DFF88D
:1049A000E4B0002529463846FFF76CFD062812D8EA
:1049B000DFE800F004441149511155002B4B002150
:1049C0001A78084600F07EFD7219034612B2284894
:1049D00021B200F071FC0135102DE3D10137013413
:1049E000102FA4B2DBD1234B1B68092B24D0452BFD
:1049F00022D0214FDFF874B0DFF874A04FF0050922
:104A0000BB689BF800103C687D68012B4FF00002EA
:104A100014BF0846104600F055FD4444354424B206
:104A20002DB203462A462146504600F045FCB9F116
:104A3000010907F10C07E3D1BDE8F88F0B4B002209
:104A400018781146BEE70B4B1B68092BC3D1002217
:104A5000FF211046B6E7054B00221978F9E799F8CF
:104A600000209AF800109BF80000ABE730E4032028
:104A7000F8E5032034E403203CE4032040E5032070
:104A8000BCE5032068E6032038B5034C25682260A6
:104A9000FFF77AFF256038BD34E40320F8B51A4FDC
:104AA0001A4C00250021384600F0D4FB2268294624
:104AB0002846FFF7E9FF2268A5F110010A2A14BF72
:104AC00001324FF0FF320846FFF7DEFF082D09D113
:104AD00026680A2E10D001362660FFF723FD2368D2
:104AE000013B23600A4800F05DFD0135642003F0BE
:104AF00043F9102DD6D1F8BD4FF0FF332360FFF7F7
:104B000011FD2660EEE700BFF8E5032034E4032042
:104B100014E603202DE9FF413F4FD7E9000107F0DC
:104B20007FFC012809D13D4ED6E9000107F078FC51
:104B3000012805D1FFF736FD40B904B0BDE8F0818A
:104B40000E28FAD1364B1B68092BF6D1344CFFF7EF
:104B5000A5FF236801330A2B236041D1314801F0BE
:104B600099FA68B9684602F00FF800992D4801F0EB
:104B700081FB684606F0E8FB2B492A4801F0A9FDB5
:104B800002F0E8FF294D2A4904F067F901F094FF8B
:104B90002B6883423CD201F08FFF2D68451B02F049
:104BA000D9FF244904F059F902F0D4FF0A228046C3
:104BB0002946684606F07BFC0099404604F04DF912
:104BC000684606F0C1FB0A222946684606F06FFCDB
:104BD000009A1949134801F0D8FB684606F0B4FB67
:104BE000236843B901F068FF104B186002F0B2FF70
:104BF000124904F032F923680B2B04BF4FF0FF3346
:104C000023600F4B0022C7E90023C6E9002394E785
:104C100040F23955C3E700BF20E4032028E4032015
:104C200034E4032044E5032018C90B006CE603209C
:104C300032C90B0040C90B004CC90B0063C90B0003
:104C400000002C402DE9F0415548564E8AB0002115
:104C500000F000FB00221146514801F069F850486D
:104C6000012101F068F850494D4804F0E3F84F483D
:104C700000F098FC04F0E6FD04F05BFE044600281A
:104C800076D104F0DFFD014603A806F039FA049A54
:104C9000002A5AD046494748DFF83481FFF744FBE1
:104CA000DDE903139C4250DA242565432944083189
:104CB00006A804F02BFC089B002B41D0414606A817
:104CC00006F04FFC00283BD0069A3B493948FFF7D5
:104CD0002BFB04F0B7FD039A014601232A4401A8E7
:104CE00006F08EF8019B029F336073689F4216D0D6
:104CF00017B17B6801337B6075687DB16B68013BE0
:104D00006B605BB92B6828469B689847AB68013B92
:104D1000AB601BB92B682846DB689847776001A811
:104D200004F095FE304604F0FFFC48B1234A2449C4
:104D3000304605F0F8FC234A2349304605F0F3FCE1
:104D400006A806F001FB0134AAE7DDE903432425A8
:104D500005FB0345A54207D0606901F0B1FFA068DB
:104D600001F0AEFF2434F5E7039801F0A9FF81E7D5
:104D70000B48002100F06EFA00221146084800F0AE
:104D8000D7FF0748012100F0D6FF1049044804F07E
:104D900051F806480AB0BDE8F04100F003BC00BF7E
:104DA000F8E5032050E6032071C90B0014E6032048
:104DB00075C90B00D0E603208EC90B0018E503204F
:104DC00060E6032004E5032058E60320A0C90B0099
:104DD00086C90B0038B5184CFFF734FB002341227D
:104DE0000121164801F028F804F11C05134800F0D1
:104DF000FEFF284600F09DFB2046012100F0A3FFA6
:104E00002846192100F0BFFD0022FF21502000F0AC
:104E100059FB0146204600F093FF04F013FD04F017
:104E20005BFD074A0749104605F0A7FCFFF70AFF9C
:104E3000BDE83840FFF776BBF8E50320A8E503207E
:104E400060E60320DD400B0030B585B0FFF7E8FCDD
:104E5000594B186806F0E0FF9FED4F4B9FED503B1C
:104E60009FED512B9FED521B41EC100B02F041FFC7
:104E7000524B83ED000B524B186806F0CDFF9FEDAF
:104E8000464B9FED473B9FED482B9FED491B41EC67
:104E9000100B02F02EFF4B4B4B48002183ED000B13
:104EA00000F0D8F900221146474800F041FF0021E8
:104EB0000846FFF769FDFFF75BFC444BD3E90001AF
:104EC00007F0AEFA424B04B2D3E9000107F0A8FAAA
:104ED000FF2205B20021104600F0F4FA2A460346EC
:104EE0002146394800F0E8F9FFF714FE394800F090
:104EF00059FB394801F0CEF898B1374801F0A1FAD2
:104F000004F0A0FC04F015FD08B9FFF79BFE334B3D
:104F10001B685A1C14D1002005B0BDE83040FFF7D3
:104F200029BA684601F030FE00992B4801F0A2F939
:104F3000684606F009FA2A49274801F0CAFBDFE76C
:104F40000A2B24D001F0B8FD264B1B68C01AFFF7CE
:104F500011FA002319462448302200F06DFF224840
:104F600000233022012100F067FF1F480023302278
:104F7000022100F061FF1C4800233022032100F0D1
:104F80005BFF194805B0BDE8304000F030BF05B008
:104F900030BD00BFAFF30080000000000000D03F34
:104FA000000000000000D0BF000000000040CF4023
:104FB000000000000040CFC070E6032030E5032071
:104FC00074E6032038E50320F8E5032020E40320FD
:104FD00028E4032014E6032044E5032034E40320FE
:104FE00018C90B006CE60320C0E5032070B5D0E9BA
:104FF00000531426044606FB0356AE4204D028464E
:1050000006F0A2F91435F8E7206801F059FE2046B1
:1050100070BD8842F8B504460D46164616D9904232
:1050200015D2A2F11406751AA1F114072C44B74247
:105030001CD02CB13146204606F002FA337C237492
:10504000304606F081F9143E143CF0E70ED0B5422C
:105050000CD02CB12946204606F0F2F92B7C2374A3
:10506000284606F071F914351434F0E7F8BD2DE93F
:10507000F0410023C0E9003383604F689F4204463B
:105080000E4623DD4FF0140808FB07F001F010FE78
:105090000546D8B1D4E9001208FB0212FFF7B9FFA8
:1050A000206801F00DFE2560A760D6E9007308FBBB
:1050B0000378B84508D03946284606F0DBF93B7C32
:1050C0002B7414371435F4E7736863602046BDE829
:1050D000F0810000F0B540494048414D91B004F0E6
:1050E00055F94049404804F051F94049404804F01E
:1050F0004DF9404804F07AFA3F4804F077FA3F4807
:1051000004F0F0FA02238022CDE9022308220024D1
:105110001146CDE900333A4800F09CF9CDE904444A
:10512000069402F017FD04A9064607A8FFF79FFFA3
:105130002F4607A90AA8FFF79AFF324B47F8043B0E
:105140000AA90DA8FFF793FF0DAA0121384603F025
:105150004FFB0DA8FFF74AFF0AA8FFF747FF2A4BAE
:105160002B6007A82E62FFF741FF284B2B6002F04F
:10517000F1FC4FF4165102F0DDFC03F009F829466A
:1051800003F00CFA04A8FFF731FF214800F053FEAA
:10519000204800F050FE204800F04DFE1F4B2049F3
:1051A000009440F25B721F4800F098FE01F084FC0E
:1051B0001D4B224618602146FF2000F083F922464D
:1051C000FF21204600F07EF9FF222146204611B043
:1051D000BDE8F04000F076B9A3C90B00F0E403206D
:1051E000D4E50320C8C90B0004E50320EDC90B007A
:1051F00018E5032060E6032058E6032050E603206C
:10520000F8E503202CCA0B0094E00B0044CA0B0005
:105210003CE60320A8E50320C0E5032025420B005F
:1052200012CA0B0044E503206CE60320074AC30AB8
:10523000D15C00F01F03C0F34510D35C044A105C3E
:1052400043EA014343EA0020704700BF54D70B00F4
:1052500074D70B00F8B50446084694F840307BB18B
:10526000E56B1C34204600F08CFB00260746B1B2EB
:105270008F4209D92A46204600F040FB0136F6E766
:10528000FFF7D4FF0546ECE7F8BD000010B5044B6E
:10529000044640F81C3B00F021F9204610BD00BF39
:1052A000BCD70B0010B50446FFF7F0FF20464421A1
:1052B000FEF7F7FE204610BD2DE9F3470C1E05460C
:1052C0009846C0F2C480002AC0F2C180B0F90C3008
:1052D000A34240F3BC80B0F90E30934240F3B78054
:1052E000407E022896B2A1B21ED0032825D0012804
:1052F00004D12B89013B9B1B22461CB2AB6BA0B295
:1053000091B203B398470023034499B295F8403013
:1053100005F11C04002B00F09380EA6B204602B0DC
:10532000BDE8F04700F0EABA2C896A89013C013AED
:10533000641A921B24B212B2E0E76B89013B5B1A3C
:1053400014461AB2DAE795F830C095F833300CF00D
:10535000030E002B39D095F8329092FBF9F296B2F9
:1053600019FB06F21CF0200F95F831A094FBFAF41B
:10537000A1EB0202A7B218BF03F1FF311AFB07F439
:105380001CBFCF1BBFB21CF0100F1FBF95F834100D
:1053900001F1FF318E1BB6B21CF0400F0ABF31463F
:1053A00095F834303E46A0EB040004BF9BB20F4694
:1053B0001CF0800F04B212B22ED117FB03F31E446F
:1053C000B6B20AFB06F609FB06F31EF0020F18BF81
:1053D00095F83100A4B21EBF00F1FF30001B84B26B
:1053E0001EF0010F18BF95F8320092B21EBF00F1F7
:1053F000FF30821A92B21CF0040F05BF114695F8D7
:10540000310095F83200224608BF0C461CF0080F08
:105410000FD100FB042077E7F80706D501378EF09F
:10542000030E17FB03F3F643C9E717FB03F73E44EC
:10543000C6E7E107EDD504FB00000138801A63E7F9
:1054400040460191FFF7F2FE0199024666E702B07D
:10545000BDE8F0872DE9F84F9DF828900E461FFA19
:1054600081FB02FB09FA59439FB2904609B20FFA39
:105470008AF204461D4600F08DFB17FB0AF111FB72
:105480000BF19DF834309DF82C2089B204F11C00FA
:1054900000F076F80A4B23609DF8303084F8303005
:1054A000002384F8316084F8328084F8335084F823
:1054B0003490A36384F840302046BDE8F88F00BFE5
:1054C000BCD70B00044BC90001F4FC6141EAD202D5
:1054D00003EA00201043704700F8FFFF10B50446B0
:1054E000C06808B101F0ECFB23781BB1E079002122
:1054F00006F0FCF9204610BD38B50446C0680D46DC
:1055000008B101F0DDFBA379062B0CBF04200320BA
:1055100010FB05F080B2A08001F0CAFBE06028B16A
:10552000A288002107F03EF8658038BDA080608029
:10553000FBE710B504460121C07906F0D7F9E07900
:10554000002106F0E4F90123237010BD37B503787C
:1055500005460C461BB1C079002106F0C7F92B782F
:10556000EC715BB1A0B20121019006F0BFF9019886
:10557000002103B0BDE8304006F0C9B903B030BD2A
:1055800070B50025044616468371C0E903550570C1
:105590000572FFF7B1FF20463146FFF7D7FF2046DF
:1055A00070BD0000C368002B00F0A4812DE9F04F0E
:1055B0008379023BDBB2042B9CBFBF4A52F82340E5
:1055C00085B0054688BF322401F06EFA2B69C01AF7
:1055D000A042F9D3B94CAE88D4F800351BB9D4F841
:1055E0006035002B7EDBB64CD4F8003523B9D4F8F7
:1055F0006035002BC0F26E81B24CD4F80035002B20
:1056000000F04481EB79B04AB04C1268190102EB0A
:105610000313575CAE495B78D1F8FC2042F08072EE
:10562000C1F8FC20226803F01F0343EA4713012757
:105630003A432260A988D5F80C80D4F804909F40A2
:10564000002944D04FF0000E72464FF0A04118F8E8
:1056500001CB0820802663689B1A462BFBD9626821
:10566000D1F808351CEA060F43EA0703C1F80835EC
:105670002FD063689B1A282BFBD9D1F80C35013841
:1056800043EA07034FEA5606C1F80C35E3D1AB886D
:105690000EF1010E1FFA8EFE7345D8D84FF430710B
:1056A00003FB01F163689B1A462BFBD96368A3EBEC
:1056B00009098945C0F0E4804FF4967001F0ECF9D7
:1056C000A988D5F80C80D4F804900029BAD10A46EC
:1056D000E8E763689B1A112BCFD863689B1A112BDC
:1056E000F7D9CAE7D4F86435002BBFF67CAFD4F8FD
:1056F0006835002BBFF677AFD4F86C35002BBFF6BA
:1057000072AF3601331D1846009301F0D1FA00281C
:105710003FF478AFAB88002B00F0ED80EA68013BE6
:1057200012FA83F702F1FF3E002348F2060248F224
:105730000D011EF801CF1CF0800F0CBF93468B4665
:105740001CF0400F0CBF16460E461CF0200F0CBF7D
:105750009046884603F10109CDF80880019603F1CF
:1057600002081FFA89F9019E20F813B01FFA88F881
:1057700020F81960029E20F8186003F103081CF05D
:10578000100F1FFA88F80CBF93468B4620F818B00C
:1057900003F104081CF0080F1FFA88F80CBF9346A9
:1057A0008B4620F818B003F105081CF0040F1FFA0F
:1057B00088F80CBF93468B4620F818B003F1080A0E
:1057C00003F1060807339BB21CF0020F1FFA88F89A
:1057D0000CBF93468B46CDF80CA01CF0010F20F8AF
:1057E00018B015BF20F8131020F813201FFA8AF301
:1057F000BDF80C3077459CD1591C023389B29BB25D
:1058000049005B004FF400474752009AC7522E4BA5
:1058100056081F6800221423C4F80425C4F80C2578
:10582000C4F80835C4F81425C4F81025C4F82005B8
:10583000C4F82465C4F82825C4F82C25EB7907EBB7
:10584000031C1B010121FE5C9CF8013003F01F03C7
:1058500043EA4613C4F86035C4F80015C4F81021B3
:10586000A160D4F81031002BFBD000234FF0FF32A1
:10587000C4F81031C4F80035C4F8602501F020FAEE
:1058800001F012F9286105B0BDE8F08FD4F8603559
:10589000002BBFF6B7AED4F86435002BBFF6B2AE1E
:1058A000D4F86835002BBFF6ADAED4F86C35002BBC
:1058B000BFF6A8AE25E700BFECD70B0000C0014043
:1058C00000100240002002407CE60320001000E0AF
:1058D00000ED00E0D4F86435002BBFF68DAED4F8AF
:1058E0006835002BBFF688AED4F86C35002BBFF6B8
:1058F00083AE06E770470423022183E743888B4287
:10590000F0B52DD9067AC2F30743C2F30724D5B206
:105910003EB1734374437543C3F30723C4F30724B1
:105920002D0A90F806C0C768BCF1060F0CBF04260C
:1059300003264E43ACF1020CB919BCF1060F1DD879
:10594000DFE80CF0041C08040F040400BC554B7085
:105950008D7005E0FE2B28BFFE23BB554D708C706B
:10596000F0BDBB554C708D70037A120E13B9D2B2D4
:10597000CA70F5E75A43C2F30722F9E7BB554C70EA
:10598000E6E740887047037A4A1CD2B2934270B56A
:105990001FD0013B13F0FF03C4680CD0FF291FBFC9
:1059A000110201F1FF31B1FBF3F39BB204BF4FF6DB
:1059B000FF71B1FBF3F325468688291B89B28E421D
:1059C00006D929785943C1F3072105F8011BF3E7EC
:1059D000027270BD08B501F07FF8014B186008BD78
:1059E0007CE603202DE9F04F85B01F46BDF93880D5
:1059F000BDF83C30A8EB0209A7EB010AB9F1000F92
:105A0000B8BFC9F10009BAF1000FB8BFCAF1000A66
:105A1000D14583460C46154604DD3A462C4647469A
:105A20000D469046BC4205DD2A4645469046224634
:105A30003C4617463E1BB2B20092A8EB050282EA32
:105A4000E271A1EBE271C6F3C03202FA86F6454577
:105A5000B4BF01224FF0FF32019176100292BC4296
:105A60001CDCDBF800200393D145D2F81080C7BFBF
:105A7000294622462A4621465846C047019A039B9A
:105A8000B61AB1B236B2002E05DA029A1544009A5F
:105A900056182DB236B2013424B2E0E705B0BDE8A5
:105AA000F08F2DE9F347BDF82C800768BDF92890E9
:105AB000CDF800800446FF6916468A461D46B84761
:105AC0002368CDF8008009F1FF323244DF69514686
:105AD0002B46204612B2B8472368CDF800809F6954
:105AE00032464B4651462046B8476B1E03EB0A012F
:105AF0002368CDF828809D6932464B4609B220467E
:105B0000AC4602B0BDE8F047604737B5013B1344EF
:105B10000468BDF8185001951BB2009364690B46E8
:105B2000A04703B030BD37B5BDF818500468CDE9C3
:105B30000025013B0B4464691BB2A04703B030BD94
:105B40002DE9F347BDF92890BDF82C800546924613
:105B50000C46CE18B4420BDA2B68CDF800809F6952
:105B600021464B46524628460134B84724B2F1E755
:105B700002B0BDE8F08713B502680191B0F90E10CC
:105B80000091546AB0F90C3000221146A04702B0CF
:105B900010BD704730B54281C2814FF0FF32002402
:105BA000054D4261012244600560018181810461EB
:105BB0000283827630BD00BF04DD0B002DE9F04F7B
:105BC0002DED028B8DB007460491BDF86010059154
:105BD000BDF864100691B0F90C1004989DF8685057
:105BE000814252DDB7F90E1091424EDD062111FBC4
:105BF0000504002C49DD02EBC504002C45DD03EB58
:105C000083030B9393B2079308339BB2089100244C
:105C10000993052C1CBF2C4B0B9A079E16BF1B1912
:105C200000239B5C0393049AABB20A9304FB05F335
:105C300013FA82F31BB204EB020A08EE103AB046E4
:105C40000FFA85F90FFA8AFA039BDB072FD5012D8E
:105C50003B681FD1D3F810B0059B32B2514638468D
:105C6000D847039B5B0803930A9B01369844099B22
:105C7000B6B2B3421FFA88F8E6D1089B013B013463
:105C800013F0FF0364B20893C3D10DB0BDEC028BD7
:105C9000BDE8F08F059ACDE9009218EE101AD3F8FE
:105CA00024B00FFA88F24B463846D847D9E7DDE9E9
:105CB00005239342D5D0012D3B6803D1D3F810B012
:105CC000069BCAE7069AE6E700D80B0030B50A291A
:105CD00085B0044607D1027E638A03EBC203638268
:105CE0000023238221E00D291FD0037E0293C38A63
:105CF0000193838A0093B0F912200B46B0F910107B
:105D0000FFF75CFF207E238A00EB400103EB410399
:105D1000A17E1BB20246238239B1B4F90C106FF098
:105D2000050505FB00118B42D6DC012005B030BD16
:105D3000018242827047012938BF012101767047F4
:105D4000C18281827047817670470368C9B29B68BF
:105D5000184738B505460C4605F026FD297C01F0AC
:105D60005FFE05F021FD0F2C28BF0F2444F0E00159
:105D7000FFF7EBFF05F018FDBDE8384001F058BE15
:105D800038B505460C4605F00FFD297C01F048FEAC
:105D9000042C28BF002405F007FD610041F08101BB
:105DA000FFF7D3FF05F000FDBDE8384001F040BE2D
:105DB00010B50446017405F0F7FC01F02BFE05F068
:105DC000F3FC217C01F02CFE05F0EEFC2121FFF715
:105DD000BCFF05F0E9FC01F02BFE20460021FFF797
:105DE000CFFF20460F21BDE81040FFF7B2BF38B506
:105DF000044605F0D9FC217C01F012FE05F0D4FC2C
:105E0000036800219B689847A51E0E3405F0CCFC62
:105E100035F8021FC9B2FFF798FF05F0C5FC2988C5
:105E2000090AFFF792FFA542F0D105F0BDFCBDE8DD
:105E3000384001F0FDBD704710B5054C34F8122014
:105E400013B920F8112010BD42F48042F9E700BFD9
:105E500034DD0B0091F85C3010B50446016013B1DD
:105E6000886D00F081FD204610BD10B5036893F8E1
:105E70005C20044612B1986D00F07EFD204610BDF6
:105E8000F8B51F469DF8243004460D4616462BB142
:105E9000012380F85C30583000F05EFD089B2363DE
:105EA0000023636306B1A66425B1294604F13800D6
:105EB00005F0EBFA069B2365079BE069A4F84C709C
:105EC000FF2BB8BFFF23A4F8543008B1FEF7E7F862
:105ED000B4F85400FEF7E1F8E061F8BD2DE9FF41A8
:105EE00004460025174698460E4601F0E1FC0D4990
:105EF000E56104F1380005F072FA9DF82830A564D8
:105F0000CDE90283FF220F23CDE90032204684F839
:105F10005C503B462A463146FFF7B2FF204604B0AC
:105F2000BDE8F0815FE00B0010B50446204601F0AB
:105F30001BFC0028FAD0204601F000FAC0B210BDC8
:105F40002DE9F04705468846FFF7EEFFEB6918702C
:105F5000EB6993F800A04FF001090AF0F00A00275E
:105F60004C462846FFF7E0FF2646EB69985500F0BF
:105F70007F0313FB09F31F4401340306A4B2BFB22D
:105F80004FEAC919EDD4631EBAF1300F88F800301A
:105F90001ED12846FFF7C8FFEB6918552846FFF7C2
:105FA000C3FFF41C0236B6B2EB69A4B298550226C0
:105FB000B6B2BE420ED22846FFF7B6FFB5F854304F
:105FC000A34284BFEB6918550134A4B20136EFE750
:105FD0000026EDE7B5F85430A3422CBF2046002040
:105FE000BDE8F0872DE9F34115461E461A460746DF
:105FF0000023964602A802F07F0CBEF17F0F03F14A
:106000000104034488BF4CF0800CBEF17F0F4FEABF
:10601000D212E4B203F804CC1ED8C4F10403C4F1D4
:106020000500E954224601A9284405EB030806F0BF
:1060300091FA721C22444146384601F06AF905463D
:1060400000F03AFD621C78623244A8B2131A58423A
:10605000584102B0BDE8F0812346CAE70233F0B5EB
:10606000054698B20023CE5C9CB256B1B5F854C038
:10607000844503F1010704D9441C16543B46A0B2E1
:10608000F1E799B2411A0A44210A02F8021C02F807
:10609000013CF0BD38B5044601F088FA002814BF71
:1060A0000125002502D1204601F0B8FB284638BD65
:1060B0002DE9F04788B00446DDF840809DF850A0F7
:1060C000894617461E46FFF7E5FF0546002840F0C3
:1060D000CD80214601A8FFF7BDFEA16C002940F04C
:1060E0008880B4F84C20A16B2B46204601F0E0F9E3
:1060F00000287AD0012323849DF85430E269042BD0
:106100005B4B40F08180186899889B79ADF80C1042
:106110008DF80E300290C2F805009DF80E30BDF8E3
:106120000C10A2F80910D3720C23B8F1000F00F084
:1061300081809DF848009DF84420400140EAC2005B
:1061400040F00600C0B2BAF1000F01D100F0FD002E
:106150001FB1002E70D140F08000E269D054226D52
:10616000E169581C12120A549A1CE169206D885486
:106170000333E26949462046FFF770FF0346B8F152
:10618000000F0BD0E26941462046FFF767FFE26946
:10619000139903462046FFF761FF034667B1E269A2
:1061A00039462046FFF75AFF03462EB1E2693146D1
:1061B0002046FFF753FF0346053BE2699BB21021DF
:1061C0002046FFF70FFF00F077FCC4E909004FF409
:1061D0007A76204601F0C8FA88BB00F06DFCA36A0D
:1061E000C01A236D73439842F3D9204601F016FB81
:1061F00035E002A801F052FDB4F84C202B4602A96C
:10620000204601F035FA73E7D3F80700D3F80B10F6
:10621000DB7B0DF1080CACE803008CF8003002AB1E
:1062200003CBC2F80500C2F809109CF80030537384
:106230000E237AE7022086E740F0C0008DE702A92E
:106240002046FFF77DFE0428CFD1E369DE78002EDB
:10625000CBD100F031FC0125A06284F82C6001A8AC
:10626000FFF703FE284608B0BDE8F0870025F9E7F0
:1062700034DE0B007FB501230422CDE90432002374
:10628000CDE90233CDE900331A46FFF711FF07B01D
:106290005DF804FB2DE9F74FDDF83C809DF83450A4
:1062A0009DF8389004468B4616461F46FFF7F2FECF
:1062B0008246002851D0214601A8FFF7CBFDB4F853
:1062C0005420E069002106F06DF90523E269594682
:1062D0002046FFF7C3FE6B1E012B15D8218CE36906
:1062E000013189B22184090A1954421CE369218CC5
:1062F00092B20230995480B2B8F1000F04D0238CCE
:106300005A1C2284A8F8003000210B188F42E26941
:106310009BB20AD9B4F854C09C4506D916F801C0FE
:1063200002F803C0013189B2EFE79DF8301000296F
:106330000CBF30213121B9F1000F01D041F008012B
:10634000022D0ED141F00401053B9BB22046FFF720
:1063500049FE824601A8FFF788FD504603B0BDE81C
:10636000F08F012D08BF41F00201EDE71FB5089C39
:106370000394002402949DF81C4001949DF8184059
:106380000094FFF787FF04B010BD30B587B0044616
:1063900010460591049206F064F900250346CDE904
:1063A0000155DDE9042100952046FFF7DFFF07B026
:1063B00030BD73B504460E46FFF76CFE0546C8B106
:1063C000214601A8FFF746FDE36962221A70E369DE
:1063D00002225A70E369320A9A70E369DE70E16959
:1063E0000422204600F095FF051E01A818BF0125D4
:1063F000FFF73BFD284602B070BD73B504460E465C
:10640000FFF748FE0546C8B1214601A8FFF722FD67
:10641000E36972221A70E36902225A70E369320A50
:106420009A70E369DE70E1690422204600F071FF92
:10643000051E01A818BF0125FFF717FD284602B069
:1064400070BD2DE9F04F2DED028B87B000AF0446F3
:10645000FFF720FE8146F8B1214607F11400FFF74F
:10646000F9FC00F029FB236D4FF47A725343A26AC2
:10647000821A9A42064603D8626A821A934221D24D
:1064800094F82C307BB1204601F0C8F94FF0000998
:1064900007F11400FFF7E9FC48461C37BD46BDEC88
:1064A000028BBDE8F08FE269C0211170E269537080
:1064B000E1690222204600F02CFFC4E909660123AD
:1064C00084F82C30204601F04FF90028E0D007F185
:1064D00013012046FFF734FD83460028D8D0E36936
:1064E000A662197801F0F002302A7FD1D4F830A0EA
:1064F000BAF1000FCCD097F813C06A4608EE102A04
:1065000003EB0C025178957805EB0125ADB205F14E
:1065100008026946D208A1EBC20295460CF10302BB
:10652000FA6003EB020E0DEB05026846C7F808D0CF
:106530007A60D7E901218A4206D00A461EF8018B0B
:1065400002F8018BBA60F4E70022425593F800800C
:10655000F96808F00608ABEB0C02033AB8F1020F39
:10656000A2EB0502294425D113F801E01944023AAF
:1065700091F801B00CF10501294419440BEB0E2BE5
:10658000D047E36940221A70E3691FFA8BFB83F856
:106590000180E3694FEA1B229A70E36983F803B034
:1065A000E1690422204600F0B4FE666218EE103A5B
:1065B0009D466DE7B8F1040F15D113F801E01944B9
:1065C000023A91F801B00CF10501294419440BEB92
:1065D0000E2BD047E36950221A70E36902221FFA9A
:1065E0008BFB5A70D5E71944D047DFE7502A08D112
:1065F0009A78D97801EB022189B22046FFF7D9FEBB
:1066000046E7402A12D1626B002A3FF441AFBBF14A
:10661000040F7FF43DAF11F0060F7FF439AF997886
:10662000D87800EB012080B2904731E7602A08D18A
:106630009A78D97801EB022189B22046FFF7DDFE76
:1066400026E7702ADFD0902A3FF422AFC02A0AD171
:10665000D0221A70E36900225A70E16902222046B2
:1066600000F057FE14E7D02A04BF002384F82C3032
:106670000EE7F7B504460F461646FFF70BFD054635
:1066800010B3214601A8FFF7E5FB238C01339BB231
:10669000EBB12384238CE2691B0A5371E369228CDA
:1066A0009A71E269072339462046FFF7D7FCE36970
:1066B0001E54043883B2E26982212046FFF792FC1F
:1066C000054601A8FFF7D1FB284603B0F0BD012322
:1066D000DFE70022FFF7CDBF08B5024B1B681B6840
:1066E000019308BD4C02030008B5024B1B685B68B0
:1066F000019308BD4C02030008B5024B1B689B6860
:10670000019308BD4C02030008B5024B1B681B69CE
:10671000019308BD4C02030008B5024B1B685B697E
:10672000019308BD4C02030008B5024B1B689B692E
:10673000019308BD4C02030008B5024B1B68DB69DE
:10674000019308BD4C02030008B5024B1B681B6A8D
:10675000019308BD4C02030008B5024B1B681B687F
:10676000019308BD2802030008B5024B1B68DB68D3
:10677000019308BD2802030008B5024B1B689B6902
:10678000019308BD2802030008B5024B1B68DB69B2
:10679000019308BD2802030008B5024B1B681B6A61
:1067A000019308BD2802030008B5024B1B685B6A11
:1067B000019308BD2802030008B5024B1B689B6AC1
:1067C000019308BD2802030008B5024B1B68DB6A71
:1067D000019308BD2802030008B5024B1B681B6B20
:1067E000019308BD2802030008B5024B1B685B6BD0
:1067F000019308BD2802030008B5024B1B681B6CFF
:10680000019308BD2802030008B5024B1B68DB6931
:10681000019308BD3002030008B5024B1B681B6AD8
:10682000019308BD3002030008B5024B1B689B6949
:10683000019308BD3802030008B5024B1B68DB69F1
:10684000019308BD3802030008B5024B1B681B6AA0
:10685000019308BD3802030008B5024B1B689B6A10
:10686000019308BD3802030008B5024B1B681B6B7F
:10687000019308BD3802030008B5024B1B689B6BEF
:10688000019308BD3802030008B5024B1B689B68E2
:10689000019308BD3C02030008B5024B1B68DB688E
:1068A000019308BD3C02030008B5024B1B681B693D
:1068B000019308BD3C02030008B5024B1B685B69ED
:1068C000019308BD3C02030008B5024B1B689B699D
:1068D000019308BD3C02030008B5024B1B68DB694D
:1068E000019308BD3C02030008B5024B1B681B6AFC
:1068F000019308BD3C02030008B5024B1B689B6A6C
:10690000019308BD3C02030008B5024B1B68DB6A1B
:10691000019308BD3C02030008B5024B1B681B6CC9
:10692000019308BD3C02030008B5024B1B685B697C
:10693000019308BD6402030008B5024B1B681B6A83
:10694000019308BD6402030008B5024B1B689B6AF3
:10695000019308BD6402030008B5024B1B681B6B62
:10696000019308BD4802030008B5024B1B689B6BEE
:10697000019308BD4802030008B5024B1B681B6C5D
:10698000019308BD4802030008B5024B1B685B6C0D
:10699000019308BD4802030008B5024B1B689B6CBD
:1069A000019308BD4802030008B5024B1B68DB6C6D
:1069B000019308BD4802030008B5024B1B685B6DDC
:1069C000019308BD4802030008B5024B1B689B6891
:1069D000019308BD7802030008B5024B1B68DB6F0A
:1069E000019308BD7802030008B5034B1B68D3F878
:1069F0008430019308BD00007802030008B5034B02
:106A00001B68D3F89830019308BD0000780203009A
:106A100008B5034B1B68D3F8BC30019308BD0000D8
:106A20007802030008B5034B1B68D3F8C430019308
:106A300008BD00007802030008B5034B1B68D3F8BB
:106A4000E030019308BD00007802030008B5034B55
:106A50001B68D3F8E430019308BD000078020300FE
:106A600008B5034B1B68D3F8F030019308BD000054
:106A70007802030008B5034B1B68D3F8F430019388
:106A800008BD00007802030008B5024B1B685B6874
:106A9000019308BD1802030008B5024B1B68DB68B0
:106AA000019308BD1802030008B5024B1B681B695F
:106AB000019308BD1802030008B5024B1B685B690F
:106AC000019308BD1802030008B5024B1B685B69FF
:106AD000019308BD6C02030008B5024B1B681B68DC
:106AE000019308BD2C02030008B5024B1B689B688C
:106AF000019308BD2C02030008B5024B1B68DB683C
:106B0000019308BD2C02030008B5024B1B681B69EA
:106B1000019308BD2C02030008B5024B1B689B685B
:106B2000019308BD6802030008B5024B1B68DB68CF
:106B3000019308BD6802030008B5024B1B685B6B3C
:106B4000019308BD6002030008B5024B1B681B6D72
:106B5000019308BD6002030008B5024B1B685B6D22
:106B6000019308BD6002030008B5024B1B68DB6E91
:106B7000019308BD6002030008B5024B1B681B6F40
:106B8000019308BD6002030008B5024B1B68DB6976
:106B9000019308BD4402030008B5024B1B68DB6B80
:106BA000019308BD4402030008B5024B1B685B68F3
:106BB000019308BD4002030008B5024B1B689B68A7
:106BC000019308BD4002030008B5024B1B68DB6857
:106BD000019308BD4002030008B5024B1B681B6906
:106BE000019308BD4002030008B5024B1B685B69B6
:106BF000019308BD4002030008B5024B1B689B6966
:106C0000019308BD4002030008B5024B1B68DB6915
:106C1000019308BD4002030008B5024B1B681B6AC4
:106C2000019308BD4002030008B5024B1B681B6BB3
:106C3000019308BD4002030008B5024B1B685B6B63
:106C4000019308BD4002030008B5024B1B681B6C92
:106C5000019308BD4002030008B5024B1B685B6C42
:106C6000019308BD4002030008B5024B1B685B6836
:106C7000019308BD2002030008B5024B1B685B6945
:106C8000019308BD2002030008B5034B1B68D3F82D
:106C90008830019308BD00002002030008B5034BB3
:106CA0001B68D3F89430019308BD00002002030054
:106CB00008B5024B1B681B68019308BD1C0203004A
:106CC00008B5024B1B685B68019308BD1C020300FA
:106CD00008B5024B1B689B68019308BD1C020300AA
:106CE00008B5024B1B685B6A019308BD1C020300D8
:106CF00008B5024B1B68DB6A019308BD1C02030048
:106D000008B5024B1B68DB6B019308BD1C02030036
:106D100008B5024B1B681B6C019308BD1C020300E5
:106D200008B5024B1B685B6C019308BD1C02030095
:106D300000F11003012213F8101C0129184608D194
:106D400053F8041C02EB4102013A03F11003F2D1A3
:106D50007047022904BF53F8041C5218F4E70EB41C
:106D6000F0B588B000AF07F13405102155F8042BB9
:106D70007A6004462B467818FD60FFF7B1FF0F28B4
:106D80007A681AD900F1080323F007036E46ADEBC9
:106D9000030D411C2B466846FD60FFF7A1FF021E54
:106DA00004DD236869469B6820469847B54620372E
:106DB000BD46BDE8F04003B070470028F7D0236817
:106DC00002469B6807F1100120469847EFE710B58F
:106DD0004368013B0446436063B903689B68984776
:106DE000A368013BA3602BB923682046DB68BDE89C
:106DF0001040184710BD38B50B6803604D684368F4
:106E00009D42044608D015B16B6801336B60606821
:106E100008B1FFF7DCFF656038BD07B503688DF882
:106E200007109B6801220DF10701984703B05DF838
:106E300004FB0B461146002210B5C0E900220446AF
:106E400083600BB9204610BDFFF7D5FFFAE78368D2
:106E5000EBB11A78032A1AD8DFE802F00417021BF4
:106E60000520704702685B685268D05C2D2812D0FC
:106E7000A0F13003092B0ED974280ED066280CD04F
:106E8000A0F16E0358425841704706207047002019
:106E9000704704207047032070470220704710B5E8
:106EA0000446FFF7D4FF02280ED0C31EDBB2012B2D
:106EB00014D82268A36850685B68BDE810400A22B5
:106EC0000021184405F0A2BC2268A36852685B68E0
:106ED000D05CA0F174035842584110BD0020FCE77B
:106EE00038B50023C0E9003304460E48C4E9020364
:106EF000A9B10B78032B06D08BB9136858684B687F
:106F0000C35C6E2B07D013684D6858688B682844A3
:106F10005B1BA060E36011462046FFF76CFF204634
:106F200038BD00BF5FE00B0038B500250B46C0E957
:106F30000055C0E90255C0E90455044611464BB15D
:106F40001A78012A06D103F11002DB6882604361DE
:106F5000FFF751FF204638BD10B54369044663B1C1
:106F60008068E060013B1030A0602061636113B174
:106F7000FFF7DEFEA060012000E0184610BD10B54E
:106F80007D210446FFF749FF01232371204610BDF0
:106F900008B50379012B02D0022B04D008BD2C21A7
:106FA000FFF73BFFFAE73A21FAE710B50446FFF78F
:106FB000EFFF20467B21FFF730FF0023237120469F
:106FC00010BD000013B504460191FFF7E1FF2368EF
:106FD000019ADB6803492046984701232046237124
:106FE00002B010BDDCDE0B0013B504460191FFF7C3
:106FF000CFFF2368019ADB680349204698470123A5
:107000002046237102B010BD44DE0B002DE9F0478D
:107010000D46222190460446FFF7FFFEDFF8A490BC
:10702000A8442F464745BA463DD017F8016B222E9B
:1070300006D05C2E04D0304605F074FA0028F1D159
:107040002368AAEB05029B682946204698475C21E5
:107050002046FFF7E2FE0D2E0AD8072E1CD9A6F116
:107060000803052B18D8DFE803F00D0F11171315CF
:10707000222E01D05C2E0FD131462046FFF7CDFEE7
:107080003D46CFE76221F8E77421F6E76E21F4E789
:107090006621F2E77221F0E723683246DB68494651
:1070A00020469847ECE7BD4205D023687A1B9B68D1
:1070B00029462046984722212046FFF7AEFEBDE82C
:1070C000F08700BF47DE0B0013B50446CDE9002171
:1070D000FFF75EFF2046DDE90021FFF797FF02235F
:1070E0002046237102B010BD13B50446CDE900213E
:1070F000FFF74EFF2046DDE90021FFF787FF012360
:107100002046237102B010BD10B50446006808B1D6
:10711000FFF75DFE204610BD002340681A46FFF7CA
:1071200043BD406800220221FFF74EBD00224068A7
:107130001146FFF741BD002240681146FFF74CBDE4
:10714000002340681A461946FFF74EBD00234068E9
:107150001A461946FFF750BD40680021FFF774BD7D
:1071600040680021FFF778BD4068002281F00101EE
:10717000FFF74ABD40680022FFF756BD0022406875
:107180001146FFF759BD002240681146FFF744BD84
:107190002DE9F04395B014460D46074600F03AFD40
:1071A00000211C220DA8009105F0FCF940230C934E
:1071B00020466B460CAA0021FFF7B6FC04460028C7
:1071C0004BD1024601216868FFF706FD0221804687
:1071D00022466868FFF700FD009E81462146002E8A
:1071E0003BD0002939D17368022B03D00A2B11D070
:1071F000F669F4E7B8F1000FFAD0716906A8043116
:1072000007AD00F04BFD0FCD3C1D0FC42B68237064
:107210004146EDE7B9F1000FEAD07469102201A8E8
:1072200005F0C0F906238DF8143001AD04F1080310
:107230001834186859682A4603C20833A342154611
:10724000F7D101A906A807AD00F0F2FC0FCD3C1D57
:107250000FC42B6823704946CAE70098FFF75CFC0F
:10726000384615B0BDE8F083024B034A1A6000228D
:107270005A60704780E6032058DE0B000022406809
:107280001146FFF7A9BC002240681146FFF7C4BCB5
:10729000002240681146FFF7CFBC40680022FFF78C
:1072A000C3BC4068002281F00101FFF7ADBC0023A0
:1072B00040681A461946FFF79FBC002340681A46EB
:1072C0001946FFF791BC002240681146FFF774BCD5
:1072D000406800220221FFF777BC002340681A466D
:1072E000FFF762BC024B04225A60024A1A607047E0
:1072F00088E6032094DE0B0013B503688DF80710B1
:10730000DC6B01224FF0FF330DF10701A04702B003
:1073100010BD10B40368DC6B4FF0FF33A4465DF87A
:10732000044B604713B5134602688DF80710D46B01
:107330000DF107010122A04702B010BD10B543694D
:10734000B3F88620B3F884309A42044608D06369C3
:10735000B3F88420511CA3F884101344187910BD8D
:1073600003681B6998470028F1D14FF0FF30F6E71A
:10737000704743691868C043C00F704770470000EA
:10738000064B994210B500F10C0405D0084604F0F4
:10739000DFFA002808BF0024204610BDFCDE0B00E9
:1073A00010B5AC210446FCF77CFE204610BDAC2194
:1073B000FCF777BE2DE9F0414FF0000886B01C467F
:1073C000C0F8048005460E4617464146102202A822
:1073D00005F0E8F8631C09D04FF47A73B4FBF3F2BC
:1073E00003FB1244CDE902285C430494686910232E
:1073F0000093006802AB41F2050240F6FF71FFF70F
:1074000013FA002807DAFFF77BFC03686B600020A3
:1074100006B0BDE8F0816869002300683A4631464D
:10742000FFF722FA031EEEDB1846F1E738B5846950
:107430000A4B036005467CB16368013B63605BB93E
:10744000236820469B689847A368013BA3601BB94B
:1074500023682046DB689847284638BD0CDF0B00C0
:1074600010B50446FFF7E2FF20461C21FCF719FE89
:10747000204610BD30B587B0044601AD684600F027
:107480000DFC0FCD04340FC42B68237007B030BD42
:1074900070B54D69054B04468C3544F8043B0646EF
:1074A0000FCD0FC42B682370304670BDE0DF0B009A
:1074B0002DE9F0439846036893B00D460024DB6A3B
:1074C00006461746984728466B46224621460094B2
:1074D000FFF72AFB0546002863D1009B002B4BD009
:1074E0005B69002B48D006A800F094FB009B5C6908
:1074F0006378022B04D1211D06A8FFF7BBFF26E00D
:107500000A2B24D11122294601A805F04BF8A368C3
:10751000002B38D004F108030DF1040C183418685E
:107520005968624603C20833A3429446F7D1062342
:1075300001A90CA88DF8143000F07AFB0DF1340C81
:10754000BCE80F0007AC0FC4DCF80030237006A8BD
:1075500000F080FB80B1336807ADD3F82090124B68
:107560000C930FCD0DAC0FC42B6823703A464346E5
:107570000CA93046C84705460098FFF7CDFA2846C3
:1075800013B0BDE8F083E368002BC3D14FF6FF7062
:10759000D4F81090FFF7D0F98145BBD104F1140164
:1075A000AAE72546E8E700BFE0DF0B0038B54369EE
:1075B0001A68002A054610DAB3F88620B3F884303A
:1075C0009A420AD103681B699847044628B92B6878
:1075D0002846DB6A9847204638BD0120FCE710B5F5
:1075E0004369B3F88620B3F884309A42044605D044
:1075F0006369B3F884201344187910BD03681B69CC
:1076000098470028F4D14FF0FF30F6E7F8B543690A
:107610001746B3F88620B3F884309A4205460E46E2
:1076200016D06969B1F88430B1F88640E41ABC42DA
:1076300028BF3C46043322461944304604F08AFFF2
:107640006A69B2F884302344A2F884302046F8BD39
:1076500003681B6998470028E3D14FF0FF34F5E732
:1076600042690023A2F884304269A2F8863070474C
:107670002DE9F0411F4603680C46DB6A8AB00546D7
:1076800016469847237DD5F81480042B0CBF0220A2
:107690000A2006220121FFF7EFF8C8F800006B6905
:1076A0001B68002B08DA2B682846DB6A0024984701
:1076B00020460AB0BDE8F0812846FFF7D1FFB7B1F8
:1076C000002303A9F8B20393ADF81030FFF7FCF9DB
:1076D0000028E8D1686906230093006803AB41F2F3
:1076E0000B0240F6FF71FFF79FF80028DBD11C2248
:1076F000002103A804F056FF237D042B1DD14FF475
:1077000007733046ADF80C30FFF71EF9ADF80E00E8
:107710006068FFF711F904906B691C22186803A9CF
:10772000FFF792F80028BED104340FCC6D698C3578
:107730000FC523682B700124BAE740F61C2330469E
:10774000ADF80C30FFF700F905AEADF80E00231DC3
:1077500004F1140718685968324603C20833BB4263
:107760001646F7D1D8E7000030B54269B2F8863046
:107770008BB004462BB1B2F884209A4201D1FFF7B6
:107780006FFF61690868002818DBB1F886507F2D0B
:1077900014D804310823C5F180022944FFF75CF8AE
:1077A000002813DD6369B3F886200AB9A3F88420A2
:1077B0006369B3F886201044A3F886006369B3F8C0
:1077C0008600B3F88430C01A0BB030BDFFF798FACA
:1077D00003680B2BF2D0FFF793FA03680B2BEDD065
:1077E00020230025CDE90235FFF78AFA03680193CB
:1077F000084B0949009302AA2B463220FFF7A4F94F
:1078000063691868FFF718F863694FF0FF321A6070
:10781000D4E700BFCFDE0B00C8DE0B0010B5436914
:1078200004461868002801DBFFF706F863694FF08B
:10783000FF321A606069112200218C3004F0B2FE20
:107840002046BDE81040FFF70BBF10B500230446EB
:107850000160C0F88430883000F0DCF9204610BDAB
:1078600073B500234FF47A72C0E901320E4A036106
:10787000026043610446AC200191FCF70CFC051E3C
:1078800005F10C0608D00123C5E90133074B019926
:107890002B603046FFF7D9FF2046C4E90565FFF7A6
:1078A000DFFE02B070BD00BF0CDF0B00E8DE0B0096
:1078B00010B54FF0FF310446FFF7D2FF204610BD50
:1078C00010B504460068002801DBFEF7B5FF20462E
:1078D00010BD0C30FFF7F4BF70474174704708B516
:1078E000007CFFF709F820EAE07008BD08B5007CCD
:1078F000FEF7DAFF20EAE07008BD08B5007CFEF76D
:10790000E3FF40EAE07008BD08B5007CFEF7D4FF55
:1079100040EAE07008BD007CFEF7DEBF37B5457C6D
:1079200004462DB1207C03B0BDE83040FEF7B4BF63
:10793000007C0191FEF7E0FF00280199F2DC284667
:1079400003B030BD10B514210446FCF7AAFB204655
:1079500010BD000010B54FF47A7304460846114676
:107960000022C4E90123044B2360012320746374C3
:10797000FEF7D2FF204610BD58DF0B00007C00232D
:10798000FEF7C2BF0022FFF7F9BF007CFEF77CBF05
:107990007047F8B5064615460C468F18BC4206D00F
:1079A000336814F8011B9B6830469847F6E7284671
:1079B000F8BD007C0022FEF7EFBE007C0021FEF740
:1079C000F3BE007C0021FEF7F7BE007C0021FEF72D
:1079D000FBBE007C0021FEF7FFBE10B5142104465B
:1079E000FCF75FFB204610BD10B54FF47A730446D8
:1079F00008460021C4E90113034B2360207411469B
:107A0000FEF7FAFE204610BD88DF0B00007C002246
:107A1000FEF7A2BE0023007C1A461946FEF7A4BE5C
:107A2000007C0022FEF7A8BE007C0022FEF7ACBE60
:107A30000121FFF7F9BF38B50D1E0446006803DDCC
:107A4000FFF746F918B938BDFFF73AF90020206072
:107A5000A5600120F7E738B50023C0E90033836053
:107A60000D4649689942044610DDFFF7E4FF68B10E
:107A7000D5E9003122681944994205D00AB1187835
:107A8000107001330132F7E76B686360204638BD40
:107A9000417470477047704708B50021007CFEF7BD
:107AA00043FE40EAE07008BD08B50121007CFEF706
:107AB0003BFE40EAE07008BD08B5007CFEF72CFEF6
:107AC00020EAE07008BD08B5007CFEF71DFE20EA44
:107AD000E07008BD13B50446007C0191FEF71CFE62
:107AE0000028019901DC607C20B1207CFEF724FE97
:107AF00020EAE07002B010BD007CFEF725BE10B594
:107B000014210446FCF7CDFA204610BD10B54FF401
:107B10007A73044608460021C4E90113044B23602C
:107B20000123207463741146FEF7D6FD204610BD74
:107B3000B0DF0B00007C0022FEF7D6BD007CFEF714
:107B4000DBBD10B514220446002104F02BFD2046B5
:107B500010BD000010B50F4C88B003A8FFF7F1FF6F
:107B60002178BFF35B8F11F001010FD12046019105
:107B7000FCF7A6FA019948B103AA0748FFF7C6FF28
:107B80002046FCF7A2FA054804F0C2FC024808B0FF
:107B900010BD00BF90E6032094E60320957A0B0009
:107BA000704710B518210446FCF77BFA204610BD3B
:107BB000F0B5037D062B8DB00E4600F104074FF0A3
:107BC000000412D000F1080515F8011D0A22304604
:107BD00001F04DF9AF42044419D0002CF4D02E210D
:107BE000304601F02BF90444EEE72F236A4639466C
:107BF0000A208DF80040FEF797FE684604F031FD3C
:107C000033680246DB68694630469847044620469A
:107C10000DB0F0BD10B5054B0446112240F8043BF1
:107C2000002104F0BFFC204610BD00BFE0DF0B00C8
:107C30000346074A10B543F8042B01F1100251F82E
:107C4000044B43F8044B9142F9D10A781A7010BDE5
:107C5000E0DF0B00037D042B04D14068003818BF1F
:107C600001207047062B07D143683BB983682BB9C5
:107C7000C3681BB90069F1E7002070470120704715
:107C800010B59DF8084044EA032343EA024242EA61
:107C9000016104234160037510BD000007B5064B68
:107CA0000360CB7800938B784A780978FFF7E8FF78
:107CB00003B05DF804FB00BFE0DF0B0010B5836884
:107CC000044613B1032201469847204610BD13B560
:107CD0000B460246D0E900016C4684E8030093E8B5
:107CE000030082E8030094E8030083E8030002B085
:107CF00010BD2DE9F04F55EC114B57EC126B85B0D0
:107D000011EE102A12EE100A2B4639468DED020BA9
:107D10008DED004B5BEC13AB04F050FB9DED020BC3
:107D200038BB51EC100B22462B4603F027FF52467E
:107D3000804689465B46DDE9000103F01FFF0246ED
:107D40000B464046494604F0D1F822468046894613
:107D50002B463046394603F011FF02460B4640469B
:107D6000494604F0EDF952465B4603F009FF41EC49
:107D7000100B05B0BDE8F08F0021FEF77DBF0000BD
:107D8000014B1860704700BF84E4032008B50B4B1B
:107D900043B1FFF7DFFE03681B699847002801DD48
:107DA000AFF30080064B43B103F03EFD03681B694F
:107DB0009847002801DDAFF3008008BD00000000F7
:107DC0000000000008B5FFF7E1FFFEF775FE014B6C
:107DD000186008BD38E703200548064A064908B57B
:107DE000121A04F0B7FB054B054A1A6008BD00BF24
:107DF00000F4032004F4032094E60B0000F40320B5
:107E00001E1C279A07B5002300931A466FF07701CE
:107E1000FEF744FF03B05DF804FB000007B543889C
:107E20000A2B08D0502B0BD1094B1B684BB103B068
:107E30005DF804EB1847FFF7E5FF03B05DF804FBBE
:107E4000002300931A466FF07701FEF727FFF4E74F
:107E5000ACE6032010B512480021FEF761FF114B7C
:107E60001A68114B9A42114B0CBF012200221A7062
:107E700001D0FFF7B1FFFEF707FE044604F09AFBBE
:107E80000B4B13B12046AFF3008000210848FEF7EA
:107E900083FEBDE8104007480021FEF7F5BE00BF95
:107EA000817D0B0000F403201E1C279AA8E6032006
:107EB000000000001D7E0B00014B00229A607047FD
:107EC000B0E60320024B1A68024B1A60704700BFED
:107ED00078E40320C0E6032080680368DB68184765
:107EE0007047084611B10B685B68184770477047C8
:107EF00070477047704738B504460D4600682E211C
:107F000004F093FB2368C31A2B6023B1037803B1F9
:107F1000013023682060184638BD10B50C21044696
:107F2000FCF7BFF8204610BD10B504210446FCF74D
:107F3000B8F8204610BD10B504210446FCF7B1F88E
:107F4000204610BDFEF730BD08B504F078FBB0FA4E
:107F500080F0400908BD704710B50C46FFF7FAFDE8
:107F6000844210D003F060FC844205D103F05CFC35
:107F7000BDE81040FFF709BD2CB1236820465B68BF
:107F8000BDE81040184710BD0B6803604B684360A4
:107F900013B15A6801325A60704713B50446084657
:107FA000019104F05EFB01990246204602B0BDE853
:107FB0001040FFF799B813B504460846019104F044
:107FC00050FB23680199DB680246204602B0BDE8F9
:107FD0001040184707B503688DF80710DB680122C9
:107FE0000DF10701984703B05DF804FB0EB403B52B
:107FF00003AB002153F8042B006A019300F055FFF6
:1080000002B05DF804EB03B070470A6802604A688A
:1080100042600022C0E9022210B502618C688460CF
:10802000CC68C4600C698A60CA6004610A6110BDD2
:108030002DE9F74FD0E900844FF0140A00930AFBB2
:1080400004F4184BA41017465C434546002C21DD70
:1080500066100AFB06F005EB00093A46B9F804B0D1
:10806000285801915F4528BF5A4604F002FB0028BA
:1080700001994FF001030BD15F4503D1009A1370B2
:108080003446E3E7FCD9A61B09F11405013EF7E7E6
:10809000F9DBF5E7A5EB08050248AD10684303B02E
:1080A000BDE8F08FCDCCCCCC7FB50369057E0191C6
:1080B00003B3F9B1002600F10C04039603A901A84B
:1080C000FFF719FF0146A8B10DF10B03039A8DF8D4
:1080D0000B602046FFF7ACFF9DF80B3053B12368CF
:1080E000142404FB0034083434F9023C002BA8BFEC
:1080F000DDB2E3E7284604B070BD000010B5094CBE
:108100002378BFF35B8FDB0709D42046FBF7D8FF4A
:1081100028B12046FBF7D9FF034804F0F9F90348DA
:1081200010BD00BFC8E60320EF7E0B007CE40320F7
:1081300010B5094C2378BFF35B8FDB0709D42046C9
:10814000FBF7BEFF28B12046FBF7BFFF034804F052
:10815000DFF9034810BD00BFCCE60320577F0B00BA
:1081600080E4032038B500250446C0E90055C0E985
:1081700004558560856140F8245FFEF705FCFFF734
:10818000BDFFE061FFF7D4FF25732062204638BDB4
:1081900010B50A4C2378BFF35B8FDB070CD4204665
:1081A000FBF78EFF40B10648FFF7DCFF2046FBF7E8
:1081B0008CFF044804F0ACF9014810BDC4E603206C
:1081C000D4E6032009870B00024A03490348002331
:1081D000FEF7D2BCED840B0079840B00F9830B0011
:1081E00000231A4619461846FEF7C6BC37B58D68F7
:1081F00004466846FFF7C8FE6A4629462046FEF751
:1082000093FE01A8FEF780FF204603B030BD37B5CE
:10821000CD6804466846FFF7B7FE6A462946204601
:10822000FEF75EFE01A8FEF76FFF204603B030BDEB
:1082300037B50D6904466846FFF7A6FE6A4629462B
:108240002046FEF7F6FD01A8FEF75EFF204603B0CC
:1082500030BD000070B58AB00D46014604A8FFF796
:10826000C5FF144E04A8FEF777FEE8B104A96846DE
:10827000FFF7CDFF02983146FFF766FE044610B1C6
:108280002C1E18BF012401A8FEF73EFF002CE9D0E8
:1082900004A96846FFF7CCFF6846FEF700FE286099
:1082A00001A8FEF731FFDDE705A8FEF72DFF0AB0B4
:1082B00070BD00BF08E00B0037B50C4620461349DF
:1082C000154604F0BCF950B9FFF744FC4FF41651C1
:1082D000FFF730FC03B0BDE83040FFF73BBC0C4972
:1082E000204604F0ACF978B94FF4165301A928469A
:1082F0000193FFF7AFFF03F097FA0199FFF742FBF5
:1083000003F092FA03B030BD0020FBE70DE00B0054
:1083100014E00B0070B5D0E900531426044606FBA8
:108320000356AE4205D005F10800FFF7F3FF143500
:10833000F7E72068FEF7C4FC204670BD70B5D0E9B1
:108340000053044605EB0316AE4204D0284602F063
:10835000FBFF1035F8E72068FEF7B2FC204670BD41
:1083600010B504460C30FFF7D5FF2046FFF7E6FFB7
:10837000204610BD10B5044B044640F8043BFFF7FF
:10838000EFFF204610BD00BF2CCA0B0010B50446FD
:10839000FFF7F0FF20462421FBF783FE204610BDA7
:1083A00010B5034B03600446FFF7E4FF204610BD01
:1083B000ACE00B0010B50446FFF7F2FF2046242185
:1083C000FBF76FFE204610BD0022C0E9002210B569
:1083D00082600C6804604C6844608C680A604A6083
:1083E00084608A6010BD10B5036804461868FEF703
:1083F000E3FA204610BD00002DE9F04F87B080461B
:1084000003931C4B5B68C3F30803894616466BB99C
:10841000FFF7BEFE044600F12403406A0593FFF710
:1084200091FD237B2BB105A8FFF7DDFF07B0BDE869
:10843000F08F01232373D4E900535FFA89F905EB28
:10844000830AAA4512D055F8047B3146381DFFF740
:108450002BFE8145F5D33B68039A0092D3F808B010
:108460004A46334641463846D847EAE70023237355
:10847000D9E700BF00ED00E02DE9F74F9B461A4B0E
:108480005B68C3F308038046894616466BB9FFF75D
:108490007FFE044600F12403406A0193FFF752FD7A
:1084A000237B2BB101A8FFF79EFF03B0BDE8F08F3F
:1084B00001232373D4E90053F6B205EB830A554533
:1084C0000ED055F8047B5946381DFFF7EDFD864266
:1084D000F5D33B684A46DB68414638469847EEE7A5
:1084E00000232373DEE700BF00ED00E02DE9F34138
:1084F000164B5B68C3F3080305460F461BBBFFF72B
:1085000047FE00F124030446406A0193FFF71AFD79
:10851000D4E90063462406EB8308B04509D101A8DD
:10852000FFF761FFA542B4BF0020012002B0BDE803
:10853000F08156F8040B39460430FFF7B5FD84424C
:10854000A8BF0446E9E70020F0E700BF00ED00E027
:10855000F8B5D0E901539D4204460E460DDB6F1C71
:10856000002F006804DDB900FEF7B2FB18B9F8BDB2
:10857000FEF7A6FB00202060A7602768626807EB73
:1085800085019200A2EB8502081D03F0F1FF47F878
:1085900025606368013363600120E8E737B500F1C7
:1085A00024030446406A01930D46FFF7CBFCD4E94F
:1085B000003203EB8202934219460BD00968A942AC
:1085C00003F10403F7D101A8FFF70DFF00252846AA
:1085D00003B030BD29462046FFF7BAFF0546002804
:1085E000F1D06368012B01D1FFF7EEFD01A8FFF781
:1085F000FAFEECE770B50446D0E900020B4600EB4A
:10860000820282420FD001461D6851F8046BAE42CF
:1086100007D1521A03F0ACFF6368013B636001208D
:1086200070BD0846EDE70020FAE71FB500F124030E
:108630000446406A01910393FFF784FC01A9204698
:10864000FFF7D8FF18B163680BB9FFF7C9FD03A89E
:10865000FFF7C9FE04B010BD70B5D0E90456182369
:10866000044603FB0656AE4215D005F11001204624
:10867000FFF7C0FF63680BB9FFF7B2FDE069296936
:108680000368DB689847696919B1206A0368DB6889
:1086900098471835E7E7D4E90453182606FB035634
:1086A000AE4204D0284602F04FFE1835F8E700230A
:1086B000636170BD73B50446FFF792FD04F12403B6
:1086C000606A0193FFF73EFC2046FFF7C5FF01A853
:1086D000FFF789FE606A08B1FEF75EF9D4E904533A
:1086E000182606FB0356AE4204D0284602F02CFEA4
:1086F0001835F8E72069FEF7E3FA2068FEF7E0FA9C
:10870000204602B070BD00000148FFF7D3BF00BF94
:10871000D4E603208842F8B504460D46164615D91E
:10872000904214D2A2F11406751AA1F114072C4438
:10873000B7421AD01CB131462046FFF766FC06F15D
:108740000800FFF7E7FD143E143CF1E70DD0B542F9
:108750000BD01CB129462046FFF757FC05F1080055
:10876000FFF7D8FD14351434F1E7F8BD8842F8B5A9
:1087700004460D46164614D9904213D2A2F11006B3
:10878000751AA1F110072C44B74218D01CB131461C
:10879000204602F055FE304602F0D6FD103E103C59
:1087A000F2E70CD0B5420AD01CB12946204602F0AF
:1087B00047FE284602F0C8FD10351034F2E7F8BD38
:1087C00070B50E1E054611DD3001FEF771FA044644
:1087D00058B1D5E9001201EB0212FFF7C7FF286874
:1087E000FEF76EFA2C60AE60012070BD0024F6E743
:1087F0002DE9F04F904695B000230391D8F804106E
:108800000A9346229942C0E90033C0E90233C0E925
:108810000433CDE908330446027623DCD8E9005757
:10882000142303FB0757AF423BD029460BA802F0A5
:1088300007FE0BA90FA8099E02F002FEDDE909134D
:1088400099421BDA089B099A03EB061603EB021206
:10885000314606F11000FFF789FFEEB9099B01339D
:10886000099311E008A8FFF7ABFF0028D6D108A8AC
:10887000FFF764FD204615B0BDE8F08F013108A870
:10888000FFF79EFF0028DDD10FA802F05DFD0BA8C9
:1088900002F05AFD1435C6E70FA9304602F0D0FDAC
:1088A000DCE70026CDE90B660D964FF01409DDE9F3
:1088B00008239E427CDA3301D35806930BB9013664
:1088C000F5E70023079309FB06F302930BAD07A915
:1088D00006A8FFF710FB82460028F0D04FF00003F7
:1088E0008DF817300146079A0DF117032846FFF758
:1088F0009FFB9DF817700190002F4AD1BDF81C30E6
:10890000ADF84030CDE911774FF6FF73CDF83CA0BC
:10891000ADF842301397D5E90132934217DB03F1EA
:10892000010ABAF1000F30DD09FB0AF0FEF7C0F9C9
:10893000834660B3D5E9001209FB0212FFF7EAFE95
:108940002868FEF7BDF9C5F800B0C5F808A02B6887
:10895000019A09FB023A6A68514609FB02320AF1A0
:108960001400FFF7D7FEBAF1000F03D00FA950464D
:10897000FFF74BFB6B6801336B6011A8FFF7CAFC74
:108980003FB10BA8FFF7C6FC71E7BB46D8E701274C
:10899000F3E7019B2D6809FB0355069B1B782BB958
:1089A000D8F80030029A13441B7CEB8008358EE720
:1089B0002168226062686360A36809920A9A0A9338
:1089C000E368A2600B9A0B932369E2600C9A0C9304
:1089D000636922610D9A0D93039B0891626123766E
:1089E000CFE70000F0B5044687B00D46264619468D
:1089F00068461746FCF73BFB0B4B46F8043B6946C1
:108A000003A8FCF734FB03AA39463046FFF7F0FE13
:108A100003A8FCF7EBFA6846FCF7E8FA034B23607F
:108A20002046256207B0F0BD2CCA0B0094E00B0075
:108A3000F0B50F4685B01D490A9C384616461D46BE
:108A400003F0FDFDC0B9A4B1294601A8FFF7BCFCA5
:108A50001749242002F074FF054630B101AB3246BD
:108A60002146FFF7BFFF134B2B6001A8FCF7BEFAAE
:108A70002C46204605B0F0BD0F49384603F0DFFD17
:108A800090B9002CF5D0294601A8FFF79DFC0849B4
:108A9000242002F055FF05460028E6D001AB3246FF
:108AA0002146FFF79FFFE0E70024E2E71CE00B0010
:108AB000B0E30B00ACE00B0020E00B00014B024ADE
:108AC0001A607047D0E6032031E00B002DE9F04733
:108AD000089DD0F8209004460E4617469846FFF7AA
:108AE00039F881454CD02B79190704D56A69544966
:108AF0002046FFF77BFAB8F1000F0DD05B2120462E
:108B0000FFF768FA41462046FFF755FA23684D49BA
:108B1000DB680222204698472B79DA0723D5D5F85F
:108B200008802F21404603F0C4FD08B100F1010880
:108B300041462046FFF73FFA2B799B0708D53A219B
:108B40002046FFF747FAEA683F492046FFF74EFA0A
:108B50002A79236812F0040FDB6814BF3B493C49B3
:108B60000222204698472B7958071DD529690B46C4
:108B70001A4613F8010B60B1202808D11946F7E70F
:108B80003448FEF700FB0028ADD0BDE8F087282868
:108B9000EED12368521ADB682046984723682E4995
:108BA000DB6804222046984700213846FDF7DCFFA9
:108BB00001462046FFF7FFF923682549DB680222BA
:108BC000204698471EB131462046FFF7F4F92B792D
:108BD00013F0300F2CD023682049DB680222204696
:108BE00098472B79D9060AD523681D49DB680722E7
:108BF00020469847AA691B492046FFF7F7F92B79C9
:108C00009A0611D5DB0605D523681049DB680222D8
:108C10002046984723681449DB6820460A22984773
:108C2000E9692046FFF7C7F95D212046FFF7D2F931
:108C300023680E49DB6820460222BDE8F04718474A
:108C400035E00B003CE00B00DCDE0B0015C90B002F
:108C500041E00B0080E603203FE00B0044E00B0006
:108C600047E00B004FE00B0052E00B005DE00B0013
:108C70002DE9F04385B0D0F820900C9C05460F46B6
:108C800090461E46FEF766FF814505D14948FEF72E
:108C90007AFA002840F08A802B6A474A01924FF006
:108CA000000901A803938DF80890FEF77EF9494664
:108CB0004046FDF759FF41498046012201A8FEF7D1
:108CC00003FA4146FFF769F93FB13D49012201A886
:108CD000FEF7FAF93946FFF760F93EB1394901224A
:108CE00001A8FEF7F1F93146FFF757F92379DF07BD
:108CF0000ED5A6682F21304603F0DBFC00B1461CE0
:108D00003149012201A8FEF7DFF93146FFF745F9A5
:108D100023799E0707D52D49022201A8FEF7D4F931
:108D2000E168FEF74FF92379580714D526693346D1
:108D30001F4613F8012B2AB1202A01D11E46F7E75E
:108D4000282AF5D12249022201A8FEF7BDF9BA1B53
:108D50003146FEF7C9F92379190707D51D490122C4
:108D600001A8FEF7B1F96169FEF73EF92379DA0649
:108D700008D5042218490DEB0200FEF7A5F9A169F8
:108D8000FEF720F923799B0607D51449062201A88E
:108D9000FEF79AF9E169FFF700F901A8FEF7EFF88D
:108DA000286A0F4903680222DB68984705B0BDE8CE
:108DB000F08300BF80E603207CE00B0012E00B0094
:108DC0001FCA0B0037E50B0060E00B0062E00B00F0
:108DD00065E00B00A1C90B0068E00B006DE00B0023
:108DE0005DE00B00F8B506460D468F180024BD4225
:108DF0000CD0336815F8011B9B6830469847031E5A
:108E000001DB1C44F3E7002C08BF1C462046F8BDDC
:108E100013B50446084659B1019103F022FC2368BA
:108E20000199DB680246204602B0BDE810401847B1
:108E300002B010BD08B5FFF7EBFF08BD03689B68E3
:108E4000184738B50D210546FFF7F8FF0A210446FB
:108E50002846FFF7F3FF204438BD38B50546FFF735
:108E6000D7FF04462846FFF7ECFF204438BD30B555
:108E70008BB00023012A8DF8243098BF0A2209AC58
:108E80000D46B1FBF2F101FB125303F0FF03092B76
:108E900094BF30333733DBB2AA4204F8013DEFD937
:108EA0002146FFF7B5FF0BB030BD2DE9F04186B08C
:108EB00000AF05460E46381D142114463B60FDF7F1
:108EC0000FFF13280ED8391D2846FFF7A1FF0446CF
:108ED0001EB12846FFF7B5FF044420461837BD46AB
:108EE000BDE8F08100F1080323F00703E846ADEB8D
:108EF000030D2246411C3B686846FDF7F1FE6946BA
:108F00002846FFF785FF0446C546E1E770477047EE
:108F100070477047064B994210B500F10C0405D01C
:108F2000084602F015FD002808BF0024204610BDA9
:108F3000FCDE0B00064B994210B500F10C0405D085
:108F4000084602F005FD002808BF0024204610BD99
:108F5000FCDE0B00064B994210B500F10C0405D065
:108F6000084602F0F5FC002808BF0024204610BD8A
:108F7000FCDE0B0010B568210446FBF792F8204692
:108F800010BD10B528210446FBF78BF8204610BD14
:108F900010B530210446FBF784F8204610BD682147
:108FA000FBF77FB82821FBF77CB83021FBF779B8B5
:108FB000F0B50025EC1C8C420DD86E1C445D875D1D
:108FC000974205D12644B14205D31D60601CF0BD17
:108FD00001342544EEE70020F9E70000024A034986
:108FE0000A20FDF7A9BD00BF996A0B00ECE00B0059
:108FF00030B40D4611461A46036809682868D3E95B
:109000000043A44630BC6047012A38B5044602D16B
:109010000B68236003E0022A03D0032A0DD000204E
:1090200038BD08200D68FBF736F803460028F0D05D
:1090300095E8030083E80300EBE700680028EED022
:109040000821FBF72EF8EAE710B5836804462BB138
:109050000322014698470023C4E9023310BD10B52E
:10906000836804462BB10322014698470023C4E9D4
:10907000023310BD10B500238AB02022CDE90223AF
:109080000446084A0092084902AA0120FDF75CFD47
:10909000206806490088002322460AB0BDE8104037
:1090A000FDF7B6BC0EE10B0003E10B0025A90B0098
:1090B00010B5013802EB410110F8013F1B0903F123
:1090C0003004392C88BF03F1370402F8024B0378CF
:1090D00003F00F0303F13004392C88BF03F1370488
:1090E000914202F8014CE7D110BD10B5044658304A
:1090F000FEF7E4FD04F14800BDE8104002F024B999
:1091000038B503688B4205460C4608D011B14B6850
:1091100001334B60286808B1FDF759FE2C6038BD5B
:10912000A0F13003DAB2092A01D818467047A0F13D
:109130006103052B01D857387047A0F14103052B77
:1091400094BF37384FF0FF307047000010B5002350
:109150000370044B04461868FDF726FC01232370B6
:10916000204610BD00E7032010B5037804461BB16C
:10917000024B1868FDF720FC204610BD00E70320D5
:1091800082B00346086849686A4603C26A4603CA51
:1091900018601846596002B0704708B582798B791B
:1091A0009A4206D1062203F0C5F9B0FA80F04009D0
:1091B00008BD0020FCE74FF0FF33036083800020F0
:1091C000704708B50246002101604160FFF7F3FFD8
:1091D0009171104608BD000010B501230361054BD5
:1091E000024603F1100153F8044B42F8044B8B4242
:1091F000F9D110BD62E30B000B7C13F0FD0330B519
:109200000DD103610C4B024603F1100453F8045BCB
:1092100042F8045BA342F9D10B88838130BD01235E
:10922000036101F11002034651F8044B43F8044B6B
:109230009142F9D1F2E700BF62E30B0010B50B4693
:109240000446B1B1012A01F110020AD1014653F8D6
:10925000040B41F8040B9342F9D10123236120460A
:1092600010BD411E12F8010D01F8010F9A42F9D10B
:10927000F3E7102203F096F9F1E738B504460D46FE
:10928000FFF7AAFF00232361A581204638BD08B55A
:1092900002690B699A4206D1102203F04BF9B0FA29
:1092A00080F0400908BD0020FCE7000001232DE903
:1092B000F3410361344B0C460646024603F11001AC
:1092C00053F8040B42F8040B8B42F9D144B3242128
:1092D000204603F0E2F904284FF0000523D1ADF851
:1092E000045001AFA51C063415F8020CFFF718FF57
:1092F000B0F1000812DB15F8010CFFF711FF002890
:109300000CDB023540EA0810A54207F8010BEBD14F
:109310009DF8053033739DF8043073730023336177
:1093200002B0BDE8F0814FF010082421204603F080
:10933000B4F9A84207D842460021304602B0BDE841
:10934000F04103F02FB9B8F1000FE9D0605DFFF7ED
:10935000E7FE030615D4000108F1FF38C7B206F88E
:1093600008702421204603F098F90135A84208D955
:10937000605DFFF7D5FE40B20028A4BF384306F871
:1093800008000135D1E700BF62E30B0013B50446C6
:109390000191FFF721FF20460199FFF787FF204643
:1093A00002B010BD10B500F10F0301391C7801F8AF
:1093B000014F834203F1FF33F8D110BD2DE9F04195
:1093C0001F468EB00D4600295BD0DAB1D0F8108070
:1093D000541EB8F1000F19D18389CDF814805BBAFF
:1093E00005AA022101A8ADF80430FFF761FE042CA4
:1093F00028BF0424224605A9284603F0ABF805F847
:109400000480621C10460EB0BDE8F08101A9FFF790
:10941000C9FF05AA7FB1102101A8FFF749FE242C3E
:1094200028BF2424224605A9284603F093F80023E8
:109430002B55621CE6E704210DEB0100FFF738FE17
:109440002D260DF11D02022102A88DF81C60FFF7E8
:109450002FFE0DF1220202210DF10A008DF821608C
:10946000FFF726FE0DF12702022103A88DF82660E2
:10947000FFF71EFE8DF82B600BAA06210DF10E00E2
:10948000CBE70A46BEE710B58AB004460023252282
:1094900008466946FFF792FF6946204601F09FFFA4
:1094A00020460AB010BDF7B5054616461F460A46C7
:1094B00001ABD0E90001FFF77BFD30F002040CD0D6
:1094C000841EBC4228BF3C463EB101992B68023144
:1094D00022461944304603F03DF8204603B0F0BD63
:1094E00037B513460C4601920A4608210546FFF798
:1094F000DAFF40B9019B22460921284603B0BDE8A6
:109500003040FFF7D0BF03B030BD0000F0B50C46CF
:1095100089B00C49054601F062FF1F2269462046CA
:10952000FFF7DEFF064650B16C46002714F8011B1A
:10953000284601F0E7FF10B10137BE42F6D12846B8
:1095400009B0F0BD5FE00B0007B5022301AA1921A5
:10955000FFF7A9FF08B1BDF8040003B05DF804FBF4
:1095600038B54FF6FF730025044643800E22294686
:1095700005700571063003F015F804F11400FFF7CB
:109580002BFE04F12800FFF727FE044904F13C00FC
:1095900001F025FF6565204638BD00BF5FE00B0088
:1095A00038B50D680446014605F12800FFF76FFE47
:1095B00040B1AB89A28A9A4205D8E08A984234BF6A
:1095C0000020012038BD0020FCE710B5D0E90632AC
:1095D00003EBC2029342184606D0046824888C42EA
:1095E00003F10803F6D110BD0020FCE7002370B59D
:1095F000036005466820FAF74EFD041E04F10C06D0
:1096000007D00123C4E90133044B23603046FFF740
:10961000A7FFC5E90064284670BD00BF10E30B003A
:1096200070B50C681434064605460FCC0FC5236888
:109630002B60304670BD000010B503681A7886B004
:1096400052BB5C884FF6FF70844225D0188A30B335
:10965000CDE903220592134A0092134ACDE9012372
:109660005A88ADF80C201A8AADF80E209A89ADF808
:10967000102059B11A79920644BF022205921B7933
:10968000DB0642BF059B43F00103059300216846BA
:10969000FDF7F0F906B010BD6FF0D100FAE76FF0FA
:1096A0007700F7E7030018007D980B00F8B5002657
:1096B000066005462820FAF7EEFC041E04F10C07AC
:1096C0000AD00123C4E90133054B23603846FFF774
:1096D00083FD266284F82460C5E900742846F8BD3D
:1096E0002CE30B0070B50025056006463020FAF724
:1096F000D2FC044688B10123C0E90133094B036061
:109700004FF6FF7383810E30FFF75BFDC4E906550A
:10971000C4E90855C4E90A55A57574600C34346071
:10972000304670BD48E30B0013B5044601A8FFF7AF
:109730000DFD23681C884FF6FF73E41A01A818BFBB
:109740000124FFF711FD204602B010BD37B50546D4
:109750000C4601A8FFF7FAFC2A682368C2F8023019
:109760006368C2F8063001A8FFF7FEFC03B030BD05
:1097700037B50D46044601A8FFF7E8FC2A68D2F881
:1097800002302360D2F80630636001A8FFF7ECFCDA
:10979000204603B030BD30B5054687B00C4601A861
:1097A000FFF7D4FC2A68236812881B889A420DD1DF
:1097B000294602A8FFF7DCFF214604A8FFF7D8FFDF
:1097C00004A902A8FFF7E9FC044600B9002401A897
:1097D000FFF7CAFC204607B030BD000010B50446B4
:1097E0006420FAF758FC68B10023C0E90033C0E9EF
:1097F0000233C0E90433C0E906330362C362C363C2
:10980000C364C365206020B90A4A0B490A20FDF7EA
:1098100093F90020FDF7D8F820B1064A07490A203D
:10982000FDF78AF9216806480022FDF719F920465C
:1098300010BD00BF996A0B00ECE00B002AE10B00A1
:1098400059A10B0010B50A4C2378BFF35B8FDB07DF
:109850000CD42046FAF734FC40B10648FFF7BEFFAF
:109860002046FAF732FC044802F052FE014810BDCF
:10987000FCE6032004E70320B99A0B0030B5036827
:10988000093B012B8DB004460D4611D8FFF7DAFFD6
:10989000A1880068FFF799FE034658B92022CDE958
:1098A00004200B4A00920B4904AA3220FDF74CF920
:1098B0000DB030BD6A6D002AFAD0D4E9032105F15C
:1098C0004C00CDE90312AC6D04AA03A9A047EFE751
:1098D0006CE10B0003E10B0008B50020FDF774F804
:1098E00000EAE07008BD10B504464069FDF7E8F9EC
:1098F000A068FDF7E5F9204610BD002247F67F710C
:10990000C0E90022C0E90222C0E90422C0E90E2217
:10991000C0E91022C0E91222C0E91422C0E91622CF
:10992000C0E91822C0E91B2202620263A0F8681095
:1099300070470368D8690028D4BF00200120704711
:1099400010B504460068FDF7BBF9204610BD70B5A0
:109950000446C06DFDF7B4F9206DFDF7B1F904F1CF
:10996000380504F14400FFF7EBFF2846FEF7E6FC5C
:1099700004F12800FEF7A2F904F11800FEF79EF9A1
:10998000D4E90053242606FB0356AE4204D02846F1
:10999000FFF7A9FF2435F8E72068FDF791F9204685
:1099A00070BD38B5141E4368054602DB62189A4242
:1099B00000DD5C1A2A68501801191A44521A02F084
:1099C000D7FD6A68121B6A6038BD000038B50023F5
:1099D0000446836008200D46FAF75DFB18B12B683A
:1099E00003606B684360034BE360034B2060A3603C
:1099F000204638BDF18F0B0009900B000B68036007
:109A000013B15A6801325A60704710B551F8043BDF
:109A1000044640F8043BFFF7F1FF23680BB9FFF75A
:109A2000DDFA204610BD10B551F8043B044640F85D
:109A3000043BFFF7E3FF204610BD10B551F8043B8F
:109A4000044640F8043BFFF7D9FF204610BD10B58F
:109A500004460430FDF758FB204610BD70B5D0E930
:109A60000053044605EBC306AE4204D0281DFDF7A3
:109A70004BFB0835F8E72068FDF722F9204670BD5A
:109A800070B5D0E90053044605EBC306AE4204D0DE
:109A9000281DFDF739FB0835F8E72068FDF710F9B8
:109AA000204670BD10B504462430FFF7E9FF04F1ED
:109AB0001800FFF7D3FF10BD70B5174B1C6854B3E7
:109AC00004F15400FEF7FAF804F14400FEF7F6F84A
:109AD00004F13400FEF7F2F804F12400FEF7EEF88A
