:02000002B0004C
:1040000000400B0054590B00000006000C00050294
:084010000401E50C00000000B2
:044018004C550B00F8
:10401C0009480A49884208B505D0094A824202D0AB
:10402C00121A01F0DBF90748074A0021121A01F0B5
:10403C00E3F9014808BD00BFF8E50320C0580B00A8
:10404C0064E6032068E60320F1E7032070B5074E11
:10405C00074C00F099FEA41BA4080025AC4200D12B
:10406C0070BD56F8043B98470135F7E768580B00CC
:10407C008C580B0000F00CB908B500F02FF9BDE816
:10408C00084000F039BE00F063BB00F069BB00785B
:10409C00B0FA80F0400970470123037070470000AC
:1040AC00F8B50A22002305460C4600F0D7FF303243
:1040BC0071480023D2B2032100F0C0F90A22002378
:1040CC002846214600F0CAFF0A22002300F0C6FF52
:1040DC00303269480023D2B2022100F0AFF96422D9
:1040EC0000232846214600F0B9FF0A22002300F0E5
:1040FC00B5FF303260480023D2B2012100F09EF9A6
:10410C004FF47A7200232846214600F0A7FF0A22BA
:10411C00002300F0A3FF0023303219465648D2B2D8
:10412C0000F08CF942F2107200232846214600F070
:10413C0095FF0A22002300F091FF30324F480023F4
:10414C00D2B2032100F07AF94D4A002328462146C9
:10415C0000F084FF0A22002300F080FF3032474831
:10416C000023D2B2022100F069F9464A0023284606
:10417C00214600F073FF0A22002300F06FFF30325B
:10418C003E480023D2B2012100F058F93E4A0023E8
:10419C002846214600F062FF0A22002307460E46FD
:1041AC0000F05CFF0023303219463448D2B200F0E4
:1041BC0045F90A2200233846314600F04FFF0A2207
:1041CC00002300F04BFF303230480023D2B20321E1
:1041DC0000F034F92746AC460926604639460A22D7
:1041EC00002300F03BFF013E84460F46F5D10A2226
:1041FC00002300F033FF303233462448D2B2022180
:10420C0000F01CF92746AC460A26604639460A22BD
:10421C00002300F023FF013E84460F46F5D10A220D
:10422C00002300F01BFF303233461848D2B2012174
:10423C0000F004F90B26284621460A22002300F040
:10424C000DFF013E05460C46F5D10A22002300F075
:10425C0005FF303233463146D2B20C4800F0EEF84E
:10426C00054800F0C5F8054800F0C2F8BDE8F84074
:10427C00064800F0BDB800BF90E60320B4E603206A
:10428C00A086010040420F0080969800A2E6032011
:10429C0008B500F071FC4FF4165100F061FC00F011
:1042AC0077FE0A4900F0F4FB00F072FE00F0F4FB1C
:1042BC000748702100F07DF80648732100F079F86A
:1042CC00BDE808400448712100F073B8801A06005C
:1042DC00A2E60320B4E6032090E6032010B5064CBA
:1042EC00D4E90001FFF7DCFED4E90032013342F1DE
:1042FC000002C4E9003210BD88E6032008B5002195
:10430C00012000F009FA0C4B0022C3E90022A2F5AF
:10431C0080329A60032000F0F7F9084800F08CF81E
:10432C00074800F089F8074800F086F8BDE8084017
:10433C00054800F081B800BF68E6032074E603204E
:10434C00A2E60320B4E6032090E603200368C9B27A
:10435C009B68184738B505460C4600F019FE297CB9
:10436C0000F0A0FB00F014FE0F2C28BF0F2444F02B
:10437C00E001FFF7EBFF00F00BFEBDE8384000F06A
:10438C0099BB38B505460C4600F002FE297C00F0BE
:10439C0089FB042C28BF002400F0FAFD610041F0D9
:1043AC008101FFF7D3FF00F0F3FDBDE8384000F0CA
:1043BC0081BB10B50446017400F0EAFD00F06CFB03
:1043CC0000F0E6FD217C00F06DFB00F0E1FD212109
:1043DC00FFF7BCFF00F0DCFD00F06CFB2046002179
:1043EC00FFF7CFFF20460F21BDE81040FFF7B2BF0B
:1043FC0038B5044600F0CCFD217C00F053FB00F0F6
:10440C00C7FD036800219B689847A51E0E3400F079
:10441C00BFFD35F8021FC9B2FFF798FF00F0B8FDD9
:10442C002988090AFFF792FFA542F0D100F0B0FDF0
:10443C00BDE8384000F03EBB7047000010B5054C9D
:10444C0034F8122013B920F8112010BD42F4804228
:10445C00F9E700BF60550B0008B5024B1B681B68E1
:10446C00019308BD4C02030008B5024B1B685B6846
:10447C00019308BD4C02030008B5024B1B681B6975
:10448C00019308BD4C02030008B5024B1B685B6925
:10449C00019308BD4C02030008B5024B1B689B69D5
:1044AC00019308BD4C02030008B5024B1B68DB6985
:1044BC00019308BD4C02030008B5024B1B681B6A34
:1044CC00019308BD4C02030008B5024B1B681B6826
:1044DC00019308BD2802030008B5024B1B68DB687A
:1044EC00019308BD2802030008B5024B1B689B69A9
:1044FC00019308BD2802030008B5024B1B68DB6959
:10450C00019308BD2802030008B5024B1B681B6A07
:10451C00019308BD2802030008B5024B1B685B6AB7
:10452C00019308BD2802030008B5024B1B689B6A67
:10453C00019308BD2802030008B5024B1B68DB6A17
:10454C00019308BD2802030008B5024B1B681B6BC6
:10455C00019308BD2802030008B5024B1B681B6CB5
:10456C00019308BD2802030008B5024B1B68DB68E9
:10457C00019308BD3C02030008B5024B1B681B6984
:10458C00019308BD3C02030008B5024B1B685B6934
:10459C00019308BD3C02030008B5024B1B689B69E4
:1045AC00019308BD3C02030008B5024B1B68DB6994
:1045BC00019308BD3C02030008B5024B1B689B6AC3
:1045CC00019308BD3C02030008B5024B1B681B6C31
:1045DC00019308BD3C02030008B5024B1B685B69E4
:1045EC00019308BD6402030008B5024B1B685B6CA9
:1045FC00019308BD4802030008B5024B1B685B68B9
:10460C00019308BD1802030008B5024B1B685B69D7
:10461C00019308BD1802030008B5024B1B689B6888
:10462C00019308BD6802030008B5024B1B68DB68E8
:10463C00019308BD6802030008B5024B1B68DB6BD5
:10464C00019308BD4402030008B5024B1B685B686C
:10465C00019308BD4002030008B5024B1B689B6820
:10466C00019308BD4002030008B5024B1B68DB68D0
:10467C00019308BD4002030008B5024B1B681B697F
:10468C00019308BD4002030008B5024B1B685B692F
:10469C00019308BD4002030008B5024B1B689B69DF
:1046AC00019308BD4002030008B5024B1B68DB698F
:1046BC00019308BD4002030008B5024B1B681B6A3E
:1046CC00019308BD4002030008B5024B1B681B6B2D
:1046DC00019308BD4002030008B5024B1B685B6BDD
:1046EC00019308BD4002030008B5024B1B681B6C0C
:1046FC00019308BD4002030008B5024B1B685B6CBC
:10470C00019308BD4002030008B5024B1B685B68AF
:10471C00019308BD2002030008B5024B1B68DB6A3D
:10472C00019308BD2002030008B5034B1B68D3F8A6
:10473C008830019308BD00002002030008B5034B2C
:10474C001B68D3F89430019308BD000020020300CD
:10475C0008B5024B1B681B68019308BD1C020300C3
:10476C0008B5024B1B685B68019308BD1C02030073
:10477C0008B5024B1B681B6C019308BD1C0203009F
:10478C0008B5024B1B685B6C019308BD1C0203004F
:10479C00002340681A46FFF757BF406800220221E9
:1047AC00FFF762BF002240681146FFF755BF002299
:1047BC0040681146FFF760BF002340681A4619464F
:1047CC00FFF762BF002340681A461946FFF764BF23
:1047DC0040680021FFF788BF40680021FFF78CBFBD
:1047EC004068002281F00101FFF75EBF40680022A3
:1047FC00FFF76ABF002240681146FFF76DBF002229
:10480C0040681146FFF758BF2DE9F04395B01446A8
:10481C000D46074600F010FA00211C220DA800914D
:10482C0000F0EAFD40230C9320466B460CAA0021B5
:10483C00FFF7FAFE044600284BD1024601216868B6
:10484C00FFF71AFF0221804622466868FFF714FF23
:10485C00009E81462146002E3BD0002939D1736839
:10486C00022B03D00A2B11D0F669F4E7B8F1000F34
:10487C00FAD0716906A8043107AD00F00BFA0FCD20
:10488C003C1D0FC42B6823704146EDE7B9F1000FB6
:10489C00EAD07469102201A800F0AEFD06238DF851
:1048AC00143001AD04F108031834186859682A460D
:1048BC0003C20833A3421546F7D101A906A807ADD8
:1048CC0000F0C8F90FCD3C1D0FC42B68237049466E
:1048DC00CAE70098FFF7A0FE384615B0BDE8F08394
:1048EC00024B034A1A6000225A607047C8E6032044
:1048FC0068560B00002240681146FFF7BDBE00222F
:10490C0040681146FFF7D8BE002240681146FFF7F9
:10491C00E3BE40680022FFF7D7BE4068002281F05A
:10492C000101FFF7C1BE002340681A461946FFF784
:10493C00B3BE002340681A461946FFF7A5BE0022F5
:10494C0040681146FFF788BE406800220221FFF73D
:10495C008BBE002340681A46FFF776BE024B04223A
:10496C005A60024A1A607047D0E60320A4560B0026
:10497C0070474174704708B5007CFFF71DFE20EAB4
:10498C00E07008BD08B5007CFFF7F6FD20EAE0708A
:10499C0008BD08B5007CFFF7FFFD40EAE07008BDDC
:1049AC0008B5007CFFF7F0FD40EAE07008BD007C24
:1049BC00FFF7FABD37B5457C04462DB1207C03B01A
:1049CC00BDE83040FFF7D0BD007C0191FFF7F4FD4E
:1049DC0000280199F2DC284603B030BD10B5142133
:1049EC000446FFF752FB204610BD000010B54FF4F3
:1049FC007A730446084611460022C4E90123044B8D
:104A0C002360012320746374FFF7DEFD204610BD84
:104A1C00E0560B007047F8B5064615460C468F1845
:104A2C00BC4206D0336814F8011B9B68304698478B
:104A3C00F6E72846F8BD007C0022FFF765BD007C38
:104A4C000021FFF769BD007C0021FFF76DBD007CE4
:104A5C000021FFF771BD007C0021FFF775BD10B57B
:104A6C0014210446FFF711FB204610BD10B54FF47E
:104A7C007A73044608460021C4E90113034B2360F2
:104A8C0020741146FFF768FD204610BD10570B002F
:104A9C00007C0022FFF718BD0023007C1A46194643
:104AAC00FFF71ABD007C0022FFF71EBD007C002220
:104ABC00FFF722BD0121FFF7F9BF41747047704722
:104ACC00704708B50021007CFFF7E6FC40EAE07077
:104ADC0008BD08B50121007CFFF7DEFC40EAE07060
:104AEC0008BD08B5007CFFF7CFFC20EAE07008BDDC
:104AFC0008B5007CFFF7C0FC20EAE07008BD13B5D8
:104B0C000446007C0191FFF7BFFC0028019901DCF1
:104B1C00607C20B1207CFFF7C7FC20EAE07002B07B
:104B2C0010BD007CFFF7C8BC10B514210446FFF77C
:104B3C00ACFA204610BD000010B54FF47A73044651
:104B4C0008460021C4E90113044B2360012320749F
:104B5C0063741146FFF780FC204610BD38570B00DC
:104B6C00007C0022FFF780BC10B514220446002103
:104B7C0000F042FC204610BD10B50F4C88B003A8C5
:104B8C00FFF7F2FF2178BFF35B8F11F001010FD11A
:104B9C0020460191FFF77BFA019948B103AA074817
:104BAC00FFF7CAFF2046FFF777FA054800F010FC24
:104BBC00024808B010BD00BFD8E60320DCE6032095
:104BCC00CB4A0B00704710B518210446FFF75DFA6D
:104BDC00204610BDF0B5037D062B8DB00E4600F1BE
:104BEC0004074FF0000412D000F1080515F8011D60
:104BFC000A22304600F03DF9AF42044419D0002C93
:104C0C00F4D02E21304600F031F90444EEE72F2386
:104C1C006A4639460A208DF80040FFF7DDFC6846ED
:104C2C0000F020FC33680246DB6869463046984742
:104C3C00044620460DB0F0BD10B5054B04461122BC
:104C4C0040F8043B002100F0D7FB204610BD00BF0C
:104C5C0068570B000346074A10B543F8042B01F1C3
:104C6C00100251F8044B43F8044B9142F9D10A78E5
:104C7C001A7010BD68570B0010B59DF8084044EA37
:104C8C00032343EA024242EA0161042341600375B3
:104C9C0010BD000007B5064B0360CB7800938B78F2
:104CAC004A780978FFF7E8FF03B05DF804FB00BF12
:104CBC0068570B00014B1860704700BFFCE50320E0
:104CCC0008B50B4B43B1FFF757FF03681B699847B7
:104CDC00002801DDAFF30080064B43B100F098F9DA
:104CEC0003681B699847002801DDAFF3008008BDFD
:104CFC00000000000000000008B5FFF7E1FFFFF71F
:104D0C0083FC014B186008BD44E703200548064AA4
:104D1C00064908B5121A00F061FB054B054A1A60EA
:104D2C0008BD00BF00F4032004F40320BC580B00A2
:104D3C0000F403201E1C279A07B5002300931A4683
:104D4C006FF07701FFF7FAFC03B05DF804FB00008D
:104D5C0007B543880A2B08D0502B0BD1094B1B6885
:104D6C004BB103B05DF804EB1847FFF7E5FF03B058
:104D7C005DF804FB002300931A466FF07701FFF7F0
:104D8C00DDFCF4E7F4E6032010B512480021FFF730
:104D9C00F7FC114B1A68114B9A42114B0CBF0122B4
:104DAC0000221A7001D0FFF7B1FFFFF725FC044673
:104DBC0000F02AFB0B4B13B12046AFF3008000210F
:104DCC000848FFF739FCBDE8104007480021FFF701
:104DDC00ABBC00BFC14C0B0000F403201E1C279A77
:104DEC00F0E60320000000005D4D0B00014B00229B
:104DFC009A607047F8E60320024B1A68024B1A605F
:104E0C00704700BFF8E5032008E70320014B024A76
:104E1C001A6070470CE7032090570B00F8B5064654
:104E2C000D468F180024BD420CD0336815F8011BB9
:104E3C009B6830469847031E01DB1C44F3E7002CAB
:104E4C0008BF1C462046F8BD13B50446084659B1A8
:104E5C00019100F007FB23680199DB6802462046AC
:104E6C0002B0BDE81040184702B010BD03689B6843
:104E7C00184730B58BB00023012A8DF8243098BF29
:104E8C000A2209AC0D46B1FBF2F101FB125303F0FF
:104E9C00FF03092B94BF30333733DBB2AA4204F83B
:104EAC00013DEFD92146FFF7CFFF0BB030BD00001D
:104EBC00024800230360FFF797BB00BF10E70320F5
:104ECC00054B02221A60054B054A9A600020C3E983
:104EDC000000FFF719BC00BF20E7032014E70320F4
:104EEC000000FFFF002240681146FFF7E5BB0022DF
:104EFC0040681146FFF7F0BB40680022FFF7E4BBA7
:104F0C004068002281F00101FFF7CEBB002340680E
:104F1C001A461946FFF7C0BB002340681A461946CB
:104F2C00FFF7B2BB002240681146FFF7A5BB002279
:104F3C0040681146FFF790BB406800220221FFF742
:104F4C0093BB002340681A46FFF77EBB024B03223B
:104F5C005A60024A1A60704724E703209C570B00E2
:104F6C007047000038B52025142304460360856083
:104F7C0005610649284600F06FF804496060284630
:104F8C0000F06AF8E060204638BD00BFD0570B0037
:104F9C0030B50E4D2978BFF35B8F11F0010487B04B
:104FAC0011D12846FFF773F868B101A8FFF7DAFFB3
:104FBC0001AA21460648FFF759FD2846FFF76CF871
:104FCC00044800F005FA024807B030BD2CE7032076
:104FDC0030E703206D4F0B007047000038B50446D6
:104FEC0014252A46002100F007FA258040250749A0
:104FFC0025812846258200F02FF804496060284658
:10500C0000F02AF8E060204638BD00BFD0570B00F6
:10501C0030B50E4D2978BFF35B8F11F0010487B0CA
:10502C0011D12846FFF733F868B101A8FFF7D6FF76
:10503C0001AA21460648FFF7D9FC2846FFF72CF8B1
:10504C00044800F0C5F9024807B030BD48E703201A
:10505C004CE70320E54F0B00FFF715B87BB972B98D
:10506C000029BEBF00204FF0004106E008BF002819
:10507C001CBF6FF000414FF0FF3000F0A7B9ADF14D
:10508C00080C6DE904CE002909DB002B1ADB00F0BB
:10509C0035F8DDF804E0DDE9022304B07047404246
:1050AC0061EB4101002B1BDB00F028F8DDF804E07C
:1050BC00DDE9022304B0404261EB4101524263EB53
:1050CC0043037047524263EB430300F017F8DDF8DB
:1050DC0004E0DDE9022304B0404261EB410170477A
:1050EC00524263EB430300F009F8DDF804E0DDE91C
:1050FC00022304B0524263EB430370472DE9F0479F
:10510C00089D04468E46002B4DD18A42944669D99F
:10511C00B2FA82F252B101FA02F3C2F1200120FA82
:10512C0001F10CFA02FC41EA030E94404FEA1C48D0
:10513C00210CBEFBF8F61FFA8CF708FB16E341EACC
:10514C00034306FB07F199420AD91CEB030306F152
:10515C00FF3080F01F81994240F21C81023E634473
:10516C005B1AA4B2B3FBF8F008FB103344EA034417
:10517C0000FB07F7A7420AD91CEB040400F1FF332C
:10518C0080F00A81A74240F207816444023840EA69
:10519C000640E41B00261DB1D4400023C5E90043A2
:1051AC003146BDE8F0878B4209D9002D00F0EF8025
:1051BC000026C5E9000130463146BDE8F087B3FA58
:1051CC0083F6002E4AD18B4202D3824200F2F98040
:1051DC00841A61EB030301209E46002DE0D0C5E943
:1051EC00004EDDE702B9FFDEB2FA82F2002A40F08F
:1051FC009280A1EB0C014FEA1C471FFA8CFE012692
:10520C00200CB1FBF7F307FB131140EA01410EFB35
:10521C0003F0884208D91CEB010103F1FF3802D2DC
:10522C00884200F2CB804346091AA4B2B1FBF7F0D6
:10523C0007FB101144EA01440EFB00FEA64508D9F9
:10524C001CEB040400F1FF3102D2A64500F2BB8036
:10525C000846A4EB0E0440EA03409CE7C6F1200785
:10526C00B34022FA07FC4CEA030C20FA07F401FACB
:10527C0006F31C43F9404FEA1C4900FA06F3B1FB54
:10528C00F9F8200C1FFA8CFE09FB181140EA0141B9
:10529C0008FB0EF0884202FA06F20BD91CEB010156
:1052AC0008F1FF3A80F08880884240F28580A8F1AE
:1052BC0002086144091AA4B2B1FBF9F009FB101100
:1052CC0044EA014100FB0EFE8E4508D91CEB01019E
:1052DC0000F1FF346CD28E456AD90238614440EA41
:1052EC000840A0FB0294A1EB0E01A142C846A646C1
:1052FC0056D353D05DB1B3EB080261EB0E0101FA4A
:10530C0007F722FA06F3F1401F43C5E900710026A6
:10531C003146BDE8F087C2F12003D8400CFA02FCFC
:10532C0021FA03F3914001434FEA1C471FFA8CFE0C
:10533C00B3FBF7F007FB10360B0C43EA064300FBFC
:10534C000EF69E4204FA02F408D91CEB030300F19A
:10535C00FF382FD29E422DD9023863449B1B89B251
:10536C00B3FBF7F607FB163341EA034106FB0EF3DA
:10537C008B4208D91CEB010106F1FF3816D28B4287
:10538C0014D9023E6144C91A46EA004638E72E4653
:10539C00284605E70646E3E61846F8E64B45A9D24B
:1053AC00B9EB020864EB0C0E0138A3E74646EAE7BA
:1053BC00204694E74046D1E7D0467BE7023B614468
:1053CC0032E7304609E76444023842E7704700BFD1
:1053DC00002301461A46184600F04CB80A44914284
:1053EC0000F1FF3300D1704710B511F8014B03F8F1
:1053FC00014F9142F9D110BD02440346934200D1B2
:10540C00704703F8011BF9E738B5104B1D68AB6BFF
:10541C000446B3B91820FFF79BF90246A86320B9DC
:10542C000B4B0C484221FFF7A3F90B490B4BC0E97E
:10543C0000130B4B83600B23838100210120C2E9F5
:10544C000401AB6B00221C615A6138BDFCE50320E2
:10545C00D1570B00E8570B000E33CDAB34126DE671
:10546C00ECDE0500034613F8012B002AFBD1181AB9
:10547C00013870472DE9F843DFF8B8800646D8F8B4
:10548C0000001F460D46914600F056F8254B1C684F
:10549C0034B9254C1C60254B13B11B68C4F88830FB
:1054AC0063681F2B07DDD8F8000000F047F84FF0B9
:1054BC00FF30BDE8F8834EB3D4F8880088B91C4B94
:1054CC0023B9D8F8000000F038F8F0E74FF48470F6
:1054DC00FFF73EF90028F4D00023C0E94033C4F8AC
:1054EC008800636840F8239001229A4000EB830106
:1054FC00D0F800311343C0F80031022EC1F880708F
:10550C0002BFD0F804311343C0F804316368D8F8F3
:10551C0000005A1C0233626044F8235000F00EF86D
:10552C000020C6E7ECE7032060E703200000000042
:10553C005D470B0060E60320704770477047000022
:10554C001D400B0059400B0081400B0085400B00A7
:10555C000000000001000200040008001000200000
:10556C004000800000010002000400080010002030
:10557C00004000800000000000000000000000005F
:10558C0000000000C912C015F912E3003005C81262
:10559C00003A0017000006002002CE12ED12240C77
:1055AC005D23000400240009C03FC0120008C000A5
:1055BC000000000C3F0C0600DB008F00E6006920A9
:1055CC00FD000700FF00EF000012000A0024C800D5
:1055DC0000098310BB02F7008F1239000F12F9007B
:1055EC007100BD00F60000121E0070243800360554
:1055FC0036213F00F3003F20F320ED0001123E0066
:10560C00300C3628002D0015090C390000210F0034
:10561C00030C0800000158107820D8008E08580898
:10562C0071008E04701000100E0000363000D41083
:10563C005010DC00700186045000882078001C009B
:10564C0004201428C0280C20480849090012892479
:10565C002005FF3F00000000000000009D470B00EC
:10566C00A7470B00B1470B00BB470B00C5470B000E
:10567C00D1470B00DD470B00E5470B00ED470B0056
:10568C00F9470B0001480B000B480B0015480B00A9
:10569C0000000000000000005F490B0055490B00A2
:1056AC004B490B0001490B003F490B0033490B00E0
:1056BC00DD470B00E5470B0027490B001F490B008A
:1056CC0015490B000B490B0015480B00000000009E
:1056DC00000000007D490B00E9490B00C1490B009B
:1056EC00294E0B0091490B00AD490B009F490B0053
:1056FC00BB490B007F490B0083490B0000000000E5
:10570C0000000000214A0B006B4A0B00434A0B00BF
:10571C00234A0B004B4A0B00534A0B005B4A0B000D
:10572C00634A0B000000000000000000CD4A0B0093
:10573C00354B0B000B4B0B00294E0B00FD4A0B009D
:10574C00CF4A0B00DF4A0B002F4B0B00EF4A0B002C
:10575C00C74A0B000000000000000000E14B0B00EA
:10576C00D14B0B00D34B0B0025592D256D2D2564EA
:10577C005425483A254D3A2553257A0061736374B4
:10578C00696D650061707000000000000000000091
:10579C004F4F0B00454F0B003B4F0B00314F0B0095
:1057AC00254F0B00194F0B00DD470B00E5470B0095
:1057BC000D4F0B00054F0B00FB4E0B00F14E0B0079
:1057CC0015480B00005245454E54206D616C6C6FB2
:1057DC006320737563636565646564002F6D6E7417
:1057EC002F776F726B73706163652F776F726B734A
:1057FC00706163652F4743432D31302D706970659F
:10580C006C696E652F6A656E6B696E732D474343C9
:10581C002D31302D706970656C696E652D34385F73
:10582C0032303230313132345F313630363138301B
:10583C003634312F7372632F6E65776C69622F6EFD
:10584C0065776C69622F6C6962632F7374646C6921
:10585C00622F72616E642E630000000009430B001E
:10586C00ED480B0069490B00F94D0B00054E0B0080
:10587C00194E0B00BD4E0B00CD4E0B00594F0B00BB
:04588C000000000018
:10589000040000001400000003000000474E550003
:1058A000738872ACE6A5D968F62F74584BF3664E30
:0458B000F941476112
:0858B40054F8FF7F0100000021
:0458BC0000000000E8
:1058C00088570B0000E603200000000000000000E5
:1058D00000000000000000000000000000000000C8
:1058E00000000000000000000000000000000000B8
:1058F00000000000000000000000000000000000A8
:105900000000000000000000000000000000000097
:105910000000000000000000000000000000000087
:0C5920000000000000000000F0E7032081
:10592C00FFFFFFFF00000102030405060708090A38
:10593C000B0C0D0E0F101112131415161718191A33
:08594C001B1C1D1E1F2028007A
:04595400785634123B
:04000003B000401CED
:00000001FF
